:020000040000FA
:04000000CAEF3CF017
:100800000000000000DCCFD1350000000000C01562
:100810003F6042A20D70A5EC363BAAB83F4F387638
:100820003F3CAA38338CBEBF350072313F1872315D
:100830003F4CBB31330EEADDB555B38A38610B3618
:10084000BBABAA2A3E42F1533E55326C3E05A38B08
:100850003EABAAAA3EB76DDB3E9A99193F6042A211
:100860000DCAF249710000804B269E783EEEE99158
:100870003E13CECC3EAAAA2A3FD1F717378071315A
:100880003F0000803F0000C03F00AAB83FC623F6EB
:10089000B80040763F4761732050726F70616E6F91
:1008A0000043616C696272616E646F00476173201E
:1008B00070706D203D0044657465637461646F0001
:1008C0004C6973746F2100476173204E6F004B2099
:1008D0004F686D7300252E326600494E46004E412A
:1008E0004E00696E66006E616E00252E64006C66B7
:1008F0000000ACC0B8F1ADC0B9F1AEC0BAF1AFC044
:10090000BBF1B8C160F1B9C161F1BAC162F1BBC15B
:1009100063F1B0C0B8F1B1C0B9F1B2C0BAF1B3C0BF
:10092000BBF1B8C184F1B9C185F1BAC186F1BBC1CF
:1009300087F1FF0E01016015A86FFF0E6115A96F09
:10094000FF0E6215AA6F7F0E6315AB6FFF0E841545
:10095000986FFF0E8515996FFF0E86159A6F7F0EA3
:1009600087159B6F985199119A119B11D8A4BBEFD1
:1009700004F0BDEF04F0C8EF04F0000E0001AC6F0E
:10098000000EAD6F800EAE6F3F0EAF6F81EF19F0AE
:10099000800E621909E13F0E631960116111D8A43C
:1009A000D4EF04F0D6EF04F0E1EF04F0000E000104
:1009B000AC6F000EAD6F800EAE6F3F0EAF6F81EF6C
:1009C00019F0ABBFF2EF04F0A805000EA959800E94
:1009D000AA597F0EAB59D8B0F0EF04F0F2EF04F053
:1009E00003EF05F09BBF01EF05F09805000E995944
:1009F000800E9A597F0E9B59D8A001EF05F003EFA6
:100A000005F01FEF05F0ACC047F0ADC048F0AEC038
:100A100049F0AFC04AF0B0C04BF0B1C04CF0B2C02A
:100A20004DF0B3C04EF013EC26F047C0ACF048C018
:100A3000ADF049C0AEF04AC0AFF081EF19F0000E42
:100A4000506F000E516F000E526F000E536F63BF58
:100A50002EEF05F02CEF05F0FAEF05F09BBF3AEF13
:100A600005F0800E9A5D4B0E9B59D8A03AEF05F029
:100A70003CEF05F046EF05F0020E506F000E516F8F
:100A8000000E526F000E536FFAEF05F09BBF52EF4E
:100A900005F0800E9A5D3F0E9B59D8A052EF05F0ED
:100AA00054EF05F0FAEF05F0170E0001B46F98C18E
:100AB000B5F099C1B6F09AC1B7F09BC1B8F0B46770
:100AC00064EF05F06CEF05F0B835B833B733B633E3
:100AD000B533B42F5FEF05F0810E0001B52501019C
:100AE000A06FFF0E0001B6210101A16FFF0E0001F2
:100AF000B7210101A26FFF0E0001B8210101A36F10
:100B0000A05117080001B46F98C1B5F099C1B6F0B3
:100B10009AC1B7F09BC1B8F0B46791EF05F099EFB7
:100B200005F0B835B833B733B633B533B42F8CEFDF
:100B300005F0B5C0ACF1B6C0ADF1B7C0AEF1B8C00C
:100B4000AFF10101A05117080001B46FACC1B5F0BD
:100B5000ADC1B6F0AEC1B7F0AFC1B8F0B42BB6EFCF
:100B600005F0D890B537B637B737B837B42FB1EFEF
:100B700005F0010198510001B51913E101019951E6
:100B80000001B6190EE101019A510001B71909E1FE
:100B900001019B510001B819D8A4D1EF05F0D3EFA2
:100BA00005F0FAEF05F0010E0101AC150001B46F7C
:100BB000000E0101AD150001B56F000E0101AE156B
:100BC0000001B66F000E0101AF150001B76FB451FF
:100BD00002080101506F000E0001B5550101516F6F
:100BE000000E0001B6550101526F000E0001B7550D
:100BF0000101536F800E01019A1909E17F0E9B19C3
:100C000098119911D8A407EF06F009EF06F075EFD7
:100C100006F0800EAA1909E13F0EAB19A811A9111F
:100C2000D8A415EF06F017EF06F022EF06F0000E3D
:100C30000001AC6F000EAD6F800EAE6F3F0EAF6F58
:100C400081EF19F0ABBF31EF06F0A805000EA959EE
:100C5000800EAA593F0EAB59D8A031EF06F033EF02
:100C600006F04FEF06F087BF3AEF06F038EF06F0D8
:100C700045EF06F0000E0001AC6F000EAD6F000EE8
:100C8000AE6F000EAF6F81EF19F0B0C0ACF0B1C025
:100C9000ADF0B2C0AEF0B3C0AFF081EF19F087BFD6
:100CA00056EF06F054EF06F06AEF06F0B0C001F020
:100CB000B1C002F0B2C003F0B3C004F0D1EC3DF01B
:100CC00001C0ACF002C0ADF003C0AEF004C0AFF0A4
:100CD00081EF19F0000E0001AC6F000EAD6F000E39
:100CE000AE6F000EAF6F81EF19F0800E9A1909E117
:100CF0003F0E9B1998119911D8A481EF06F083EF4C
:100D000006F0B0EF06F087BF8AEF06F088EF06F036
:100D1000A6EF06F0000E286E000E296E800E2A6ED9
:100D20003F0E2B6EACC02CF0ADC02DF0AEC02EF03F
:100D3000AFC02FF0E7EC2CF028C0ACF029C0ADF02C
:100D40002AC0AEF02BC0AFF081EF19F0ACC0ACF010
:100D5000ADC0ADF0AEC0AEF0AFC0AFF081EF19F0F6
:100D6000400E8719841185118611D8A4BAEF06F0B8
:100D7000BCEF06F0D8EF06F0ACC00FF0ADC010F03D
:100D8000AEC011F0AFC012F0ACC013F0ADC014F0A3
:100D9000AEC015F0AFC016F0D2EC2AF00FC0ACF028
:100DA00010C0ADF011C0AEF012C0AFF081EF19F07D
:100DB0003F0E8719841185118611D8A4E2EF06F041
:100DC000E4EF06F0FFEF06F063BFE9EF06F0EBEFAC
:100DD00006F0FFEF06F0ACC06CF0ADC06DF0AEC039
:100DE0006EF0AFC06FF073EC28F06CC0ACF06DC06B
:100DF000ADF06EC0AEF06FC0AFF081EF19F0ACC0D7
:100E000001F0ADC002F0AEC003F0AFC004F008ECDA
:100E10003EF001C070F102C071F103C072F104C074
:100E200073F1800E0101AA190BE17F0EAB19A81115
:100E3000A911D8B41EEF07F020EF07F039EF07F043
:100E4000A851A911AA11AB11D8B429EF07F02BEFC3
:100E500007F039EF07F0800EAA1909E13F0EAB1930
:100E6000A811A911D8A437EF07F039EF07F004EF64
:100E700008F070C1B4F171C1B5F172C1B6F173C1BE
:100E8000B7F187BF48EF07F046EF07F062EF07F0D2
:100E9000000E286E000E296E800E2A6E3F0E2B6EFD
:100EA000B4C12CF0B5C12DF0B6C12EF0B7C12FF0F2
:100EB000E7EC2CF028C0B4F129C0B5F12AC0B6F196
:100EC0002BC0B7F1010163BF6AEF07F068EF07F0CD
:100ED000FAEF07F0000EA8250001B46F000E010123
:100EE000A9210001B56F800E0101AA210001B66F92
:100EF000C00E0101AB210001B76F0101505100018B
:100F0000B411B86F010151510001B511B96F010160
:100F100052510001B611BA6F010153510001B711CE
:100F2000BB6FB851B911BA11BB11D8A49AEF07F031
:100F30009CEF07F0DCEF07F0B4C15BF0B5C15CF0EB
:100F4000B6C15DF0B7C15EF0B4C157F0B5C158F09D
:100F5000B6C159F0B7C15AF014EC3DF057C028F0B3
:100F600058C029F059C02AF05AC02BF0B4C15BF028
:100F7000B5C15CF0B6C15DF0B7C15EF0B4C157F069
:100F8000B5C158F0B6C159F0B7C15AF014EC3DF0F4
:100F900057C02CF058C02DF059C02EF05AC02FF079
:100FA000E7EC2CF028C0B4F129C0B5F12AC0B6F1A5
:100FB0002BC0B7F1FAEF07F00101500551115211A2
:100FC0005311D8A4E6EF07F0E8EF07F0FAEF07F0C7
:100FD000B4C101F0B5C102F0B6C103F0B7C104F06D
:100FE000D1EC3DF001C0B4F102C0B5F103C0B6F1DF
:100FF00004C0B7F1B4C1ACF0B5C1ADF0B6C1AEF04C
:10100000B7C1AFF081EF19F0000E886F000E896F45
:10101000800E8A6F3F0E8B6F63BF13EF08F011EFE6
:1010200008F071EF08F05051511152115311D8A42A
:101030001CEF08F01EEF08F05EEF08F0ACC05BF0AC
:10104000ADC05CF0AEC05DF0AFC05EF0ACC057F0BC
:10105000ADC058F0AEC059F0AFC05AF014EC3DF03E
:1010600057C028F058C029F059C02AF05AC02BF0B8
:10107000ACC05BF0ADC05CF0AEC05DF0AFC05EF088
:10108000ACC057F0ADC058F0AEC059F0AFC05AF088
:1010900014EC3DF057C02CF058C02DF059C02EF084
:1010A0005AC02FF0E7EC2CF028C0ACF029C0ADF00E
:1010B0002AC0AEF02BC0AFF081EF19F050055111EE
:1010C00052115311D8A467EF08F069EF08F071EFDF
:1010D00008F0000E886F000E896F800E8A6FBF0EB9
:1010E0008B6F9BBF80EF08F09805000E9959000E9A
:1010F0009A594D0E9B59D8A080EF08F082EF08F066
:1011000007EF0BF0ABBF94EF08F0F80EA85DFF0EF1
:10111000A9597F0EAA593F0EAB59D8B092EF08F0EB
:1011200094EF08F007EF09F087BF99EF08F09BEF05
:1011300008F0D1EF08F0600E136E420E146EA20E8E
:10114000156E0D0E166E88C10FF089C110F08AC1A0
:1011500011F08BC112F0D2EC2AF00FC0A4F110C034
:10116000A5F111C0A6F112C0A7F1A4C10FF0A5C14D
:1011700010F0A6C111F0A7C112F0600E136E420E5E
:10118000146EA20E156E0D0E166ED2EC2AF00FC064
:10119000ACF010C0ADF011C0AEF012C0AFF081EFF6
:1011A00019F0CA0E136EF20E146E490E156E710E02
:1011B000166E88C10FF089C110F08AC111F08BC181
:1011C00012F0D2EC2AF00FC0A4F110C0A5F111C0AA
:1011D000A6F112C0A7F1A4C10FF0A5C110F0A6C1DD
:1011E00011F0A7C112F0CA0E136EF20E146E490E62
:1011F000156E710E166ED2EC2AF00FC0ACF010C056
:10120000ADF011C0AEF012C0AFF081EF19F0ABBF7E
:1012100017EF09F0080EA85D000EA959800EAA5913
:101220003F0EAB59D8A017EF09F019EF09F094EF72
:1012300009F087BF28EF09F087518611851106E173
:101240008405D8B026EF09F028EF09F05EEF09F029
:10125000600E136E420E146EA20E156E0D0E166EFB
:1012600088C10FF089C110F08AC111F08BC112F052
:10127000D2EC2AF00FC0A4F110C0A5F111C0A6F164
:1012800012C0A7F1A4C10FF0A5C110F0A6C111F0C2
:10129000A7C112F0600E136E420E146EA20E156EF0
:1012A0000D0E166ED2EC2AF00FC0ACF010C0ADF0EF
:1012B00011C0AEF012C0AFF081EF19F0CA0E136E7C
:1012C000F20E146E490E156E710E166E88C10FF077
:1012D00089C110F08AC111F08BC112F0D2EC2AF052
:1012E0000FC0A4F110C0A5F111C0A6F112C0A7F162
:1012F000A4C10FF0A5C110F0A6C111F0A7C112F052
:10130000CA0E136EF20E146E490E156E710E166E25
:10131000D2EC2AF00FC0ACF010C0ADF011C0AEF0AE
:1013200012C0AFF081EF19F070C147F071C148F001
:1013300072C149F073C14AF0000E4B6E000E4C6E44
:10134000800E4D6EBF0E4E6E13EC26F047C0B0F10E
:1013500048C0B1F149C0B2F14AC0B3F1000E136EFA
:10136000000E146E800E156E3E0E166EB0C10FF09C
:10137000B1C110F0B2C111F0B3C112F0D2EC2AF039
:101380000FC05BF010C05CF011C05DF012C05EF0E9
:10139000AB0E576EAA0E586EAA0E596E3E0E5A6EBE
:1013A00014EC3DF057C0A4F158C0A5F159C0A6F106
:1013B0005AC0A7F1B0C113F0B1C114F0B2C115F019
:1013C000B3C116F0B0C10FF0B1C110F0B2C111F04D
:1013D000B3C112F0D2EC2AF00FC054F110C055F195
:1013E00011C056F112C057F1B0C113F0B1C114F0E1
:1013F000B2C115F0B3C116F0A4C10FF0A5C110F031
:10140000A6C111F0A7C112F0D2EC2AF00FC05BF018
:1014100010C05CF011C05DF012C05EF0000E576E9F
:10142000000E586E000E596E3F0E5A6E14EC3DF0D1
:1014300057C048F158C049F159C04AF15AC04BF160
:1014400054C10FF055C110F056C111F057C112F040
:1014500048C113F049C114F04AC115F04BC116F050
:10146000D2EC2AF00FC044F110C045F111C046F192
:1014700012C047F1B0C10FF0B1C110F0B2C111F00C
:10148000B3C112F0000E136EAA0E146EB80E156ED4
:101490003F0E166ED2EC2AF00FC074F110C075F139
:1014A00011C076F112C077F1700E136EA50E146E96
:1014B000EC0E156E360E166EB0C10FF0B1C110F005
:1014C000B2C111F0B3C112F0D2EC2AF00FC057F044
:1014D00010C058F011C059F012C05AF03B0E136EF4
:1014E000AA0E146EB80E156E3F0E166E44C10FF0A4
:1014F00045C110F046C111F047C112F0D2EC2AF0FC
:101500000FC05BF010C05CF011C05DF012C05EF067
:1015100014EC3DF057C078F158C079F159C07AF118
:101520005AC07BF174C147F075C148F076C149F0EB
:1015300077C14AF078C14BF079C14CF07AC14DF0D7
:101540007BC14EF013EC26F047C080F148C081F11A
:1015500049C082F14AC083F180C1B8F181C1B9F1BB
:1015600082C1BAF183C1BBF1B8C190F1B9C191F1A7
:10157000BAC192F1BBC193F1000E01019015B86F91
:10158000F00E9115B96FFF0E9215BA6FFF0E9315FD
:10159000BB6FB8C180F1B9C181F1BAC182F1BBC1E1
:1015A00083F174C15BF075C15CF076C15DF077C109
:1015B0005EF080C157F081C158F082C159F083C1FB
:1015C0005AF014EC3DF057C094F158C095F159C051
:1015D00096F15AC097F178C157F079C158F07AC1A5
:1015E00059F07BC15AF094C15BF095C15CF096C193
:1015F0005DF097C15EF014EC3DF057C01CF158C08F
:101600001DF159C01EF15AC01FF175EF12F0000E06
:101610007C6F000E7D6F000E7E6F000E7F6FABBF84
:101620001DEF0BF0AB5107E1800EAA5DD8B01BEFA8
:101630000BF01DEF0BF050EF0BF070C10FF071C10C
:1016400010F072C111F073C112F0000E136E000E93
:10165000146E800E156E4B0E166ED2EC2AF00FC073
:1016600070F110C071F111C072F112C073F1E80E87
:1016700001017C27FF0E7D23FF0E7E23FF0E7F23BB
:1016800070C1B8F171C1B9F172C1BAF173C1BBF1E6
:10169000B8C1A8F1B9C1A9F1BAC1AAF1BBC1ABF1F6
:1016A000170E0001B46FA8C1B5F0A9C1B6F0AAC168
:1016B000B7F0ABC1B8F0B46760EF0BF068EF0BF0B8
:1016C000B835B833B733B633B533B42F5BEF0BF05F
:1016D000810E0001B525B96FFF0EB621BA6FFF0E5E
:1016E000B721BB6FFF0EB821BC6FB95101017C2738
:1016F0000001BA5101017D230001BB5101017E238C
:101700000001BC5101017F23FF0EA815AC6FFF0E35
:10171000A915AD6F7F0EAA15AE6F000EAB15AF6F9A
:10172000000EAC11A86F000EAD11A96F800EAE11A6
:10173000AA6F3F0EAF11AB6FAFBFAEEF0BF0AF5163
:101740000BE1720EAC5DC40EAD591C0EAE59D8B093
:10175000ACEF0BF0AEEF0BF0B8EF0BF0000EA06F9C
:10176000000EA16F000EA26F000EA36FEAEF0BF048
:10177000AFBFCAEF0BF0AF510BE1D70EAC5DB30EAC
:10178000AD595D0EAE59D8B0C8EF0BF0CAEF0BF0F3
:10179000D4EF0BF0010EA06F000EA16F000EA26F30
:1017A000000EA36FEAEF0BF0000EA06F000EA16F0A
:1017B000000EA26F000EA36F010E7C27000E7D238A
:1017C0007E237F23000EA827000EA923800EAA23C4
:1017D000FF0EAB23A8C1B8F1A9C1B9F1AAC1BAF1F2
:1017E000ABC1BBF1B8C170F1B9C171F1BAC172F14D
:1017F000BBC173F170C157F071C158F072C159F09B
:1018000073C15AF0A0C1B4F0A1C1B5F00001D890E5
:10181000B437B537D890B437B537810EB425F66EE6
:10182000080EB521F76E0900F5CF5BF00900F5CF82
:101830005CF00900F5CF5DF00A00F5CF5EF014EC26
:101840003DF057C074F158C075F159C076F15AC0D7
:1018500077F1000E286E000E296E800E2A6E3F0E64
:101860002B6E70C14BF071C14CF072C14DF073C161
:101870004EF0A0C1B4F0A1C1B5F00001D890B437CA
:10188000B537D890B437B537810EB425F66E080E4B
:10189000B521F76E0900F5CF47F00900F5CF48F004
:1018A0000900F5CF49F00A00F5CF4AF013EC26F015
:1018B00047C02CF048C02DF049C02EF04AC02FF090
:1018C000E7EC2CF028C078F129C079F12AC07AF130
:1018D0002BC07BF174C10FF075C110F076C111F00F
:1018E00077C112F078C113F079C114F07AC115F004
:1018F0007BC116F0D2EC2AF00FC05CF110C05DF194
:1019000011C05EF112C05FF15CC16CF15DC16DF19F
:101910005EC16EF15FC16FF16CC1B8F16DC1B9F11B
:101920006EC1BAF16FC1BBF1B8C190F1B9C191F10B
:10193000BAC192F1BBC193F1000E01019015B86FCD
:10194000F00E9115B96FFF0E9215BA6FFF0E931539
:10195000BB6FB8C16CF1B9C16DF1BAC16EF1BBC159
:101960006FF1A8C1B4F0A9C1B5F0AAC1B6F0ABC17E
:10197000B7F00001B735B733B633B533B433000E23
:10198000B415B86FF00EB515B96FFF0EB615BA6F76
:10199000FF0EB715BB6F000EB8110101906F000E5E
:1019A0000001B9110101916F000E0001BA1101018E
:1019B000926F200E0001BB110101936FA0C1B4F022
:1019C000A1C1B5F0A2C1B6F0A3C1B7F0150ED89071
:1019D0000001B437B537B637B737E82EE7EF0CF06C
:1019E000010190510001B425B86F0101915100012E
:1019F000B521B96F010192510001B621BA6F010101
:101A000093510001B721BB6F000EB8250101B86FDB
:101A1000000E0001B9210101B96F400E0001BA2189
:101A20000101BA6F000E0001BB210101BB6FB8C1FB
:101A300068F1B9C169F1BAC16AF1BBC16BF1A0C16A
:101A4000B4F0A1C1B5F00001D890B437B537D89043
:101A5000B437B537810EB425F66E080EB521F76E92
:101A60000900F5CF5BF00900F5CF5CF00900F5CF78
:101A70005DF00A00F5CF5EF068C157F069C158F01B
:101A80006AC159F06BC15AF014EC3DF057C094F1A3
:101A900058C095F159C096F15AC097F170C157F0EE
:101AA00071C158F072C159F073C15AF094C15BF022
:101AB00095C15CF096C15DF097C15EF014EC3DF00D
:101AC00057C034F158C035F159C036F15AC037F11A
:101AD00068C113F069C114F06AC115F06BC116F04A
:101AE0006CC10FF06DC110F06EC111F06FC112F03A
:101AF000D2EC2AF00FC05BF010C05CF011C05DF0BA
:101B000012C05EF074C157F075C158F076C159F03B
:101B100077C15AF014EC3DF057C094F158C095F1DC
:101B200059C096F15AC097F134C113F035C114F081
:101B300036C115F037C116F06CC10FF06DC110F051
:101B40006EC111F06FC112F0D2EC2AF00FC05BF041
:101B500010C05CF011C05DF012C05EF094C157F08F
:101B600095C158F096C159F097C15AF014EC3DF068
:101B700057C054F158C055F159C056F15AC057F1E9
:101B800054C10FF055C110F056C111F057C112F0F9
:101B900078C113F079C114F07AC115F07BC116F049
:101BA000D2EC2AF00FC030F110C031F111C032F187
:101BB00012C033F15CC10FF05DC110F05EC111F0D5
:101BC0005FC112F05CC113F05DC114F05EC115F08D
:101BD0005FC116F0D2EC2AF00FC08CF110C08DF16D
:101BE00011C08EF112C08FF1550E4B6E320E4C6E3D
:101BF0006C0E4D6E3E0E4E6E420E136EF10E146E56
:101C0000530E156E3E0E166E8CC10FF08DC110F086
:101C10008EC111F08FC112F0D2EC2AF00FC047F044
:101C200010C048F011C049F012C04AF013EC26F081
:101C300047C0A4F148C0A5F149C0A6F14AC0A7F128
:101C4000050E4B6EA30E4C6E8B0E4D6E3E0E4E6E01
:101C50008CC113F08DC114F08EC115F08FC116F038
:101C6000A4C10FF0A5C110F0A6C111F0A7C112F0D8
:101C7000D2EC2AF00FC047F010C048F011C049F074
:101C800012C04AF013EC26F047C054F148C055F199
:101C900049C056F14AC057F1AB0E4B6EAA0E4C6EBE
:101CA000AA0E4D6E3E0E4E6E8CC113F08DC114F017
:101CB0008EC115F08FC116F054C10FF055C110F050
:101CC00056C111F057C112F0D2EC2AF00FC047F004
:101CD00010C048F011C049F012C04AF013EC26F0D1
:101CE00047C048F148C049F149C04AF14AC04BF1E8
:101CF000B70E4B6E6D0E4C6EDB0E4D6E3E0E4E6E85
:101D00008CC113F08DC114F08EC115F08FC116F087
:101D100048C10FF049C110F04AC111F04BC112F097
:101D2000D2EC2AF00FC047F010C048F011C049F0C3
:101D300012C04AF013EC26F047C038F148C039F120
:101D400049C03AF14AC03BF19A0E4B6E990E4C6E67
:101D5000190E4D6E3F0E4E6E8CC113F08DC114F0F6
:101D60008EC115F08FC116F038C10FF039C110F0D7
:101D70003AC111F03BC112F0D2EC2AF00FC047F08B
:101D800010C048F011C049F012C04AF013EC26F020
:101D900047C000F148C001F149C002F14AC003F157
:101DA0008CC113F08DC114F08EC115F08FC116F0E7
:101DB0008CC10FF08DC110F08EC111F08FC112F0E7
:101DC000D2EC2AF00FC004F110C005F111C006F1E9
:101DD00012C007F100C10FF001C110F002C111F0F3
:101DE00003C112F004C113F005C114F006C115F0CF
:101DF00007C116F0D2EC2AF00FC04CF110C04DF123
:101E000011C04EF112C04FF130C113F031C114F0C6
:101E100032C115F033C116F05CC14BF05DC14CF01E
:101E20005EC14DF05FC14EF06CC147F06DC148F02E
:101E30006EC149F06FC14AF013EC26F047C00FF0B5
:101E400048C010F049C011F04AC012F0D2EC2AF09C
:101E50000FC058F110C059F111C05AF112C05BF116
:101E60004CC147F04DC148F04EC149F04FC14AF056
:101E700058C14BF059C14CF05AC14DF05BC14EF006
:101E800013EC26F047C04CF148C04DF149C04EF16B
:101E90004AC04FF16CC10FF06DC110F06EC111F06E
:101EA0006FC112F06CC113F06DC114F06EC115F06A
:101EB0006FC116F0D2EC2AF00FC08CF110C08DF17A
:101EC00011C08EF112C08FF1000E4B6E000E4C6EE1
:101ED000400E4D6E400E4E6E8CC147F08DC148F0E5
:101EE0008EC149F08FC14AF013EC26F047C058F17B
:101EF00048C059F149C05AF14AC05BF158C147F096
:101F000059C148F05AC149F05BC14AF04CC14BF08D
:101F10004DC14CF04EC14DF04FC14EF013EC26F0C8
:101F200047C068F148C069F149C06AF14AC06BF125
:101F300068C1B8F169C1B9F16AC1BAF16BC1BBF14D
:101F4000B8C190F1B9C191F1BAC192F1BBC193F19D
:101F5000000E01019015B86FF00E9115B96FFF0ECC
:101F60009215BA6FFF0E9315BB6FB8C168F1B9C176
:101F700069F1BAC16AF1BBC16BF1000E4B6E000E84
:101F80004C6E400E4D6EC00E4E6E68C147F069C17A
:101F900048F06AC149F06BC14AF013EC26F047C023
:101FA0003CF148C03DF149C03EF14AC03FF18CC10F
:101FB0005BF08DC15CF08EC15DF08FC15EF03CC105
:101FC00057F03DC158F03EC159F03FC15AF014ECF2
:101FD0003DF057C040F158C041F159C042F15AC0DC
:101FE00043F14CC157F04DC158F04EC159F04FC1AB
:101FF0005AF040C15BF041C15CF042C15DF043C1A9
:102000005EF014EC3DF057C034F158C035F159C0C2
:1020100036F15AC037F16CC10FF06DC110F06EC1CE
:1020200011F06FC112F068C113F069C114F06AC1F8
:1020300015F06BC116F0D2EC2AF00FC074F110C08D
:1020400075F111C076F112C077F168C113F069C162
:1020500014F06AC115F06BC116F030C10FF031C138
:1020600010F032C111F033C112F0D2EC2AF00FC0DF
:1020700047F010C048F011C049F012C04AF05CC1EE
:1020800013F05DC114F05EC115F05FC116F034C1EC
:102090000FF035C110F036C111F037C112F0D2EC9B
:1020A0002AF00FC04BF010C04CF011C04DF012C020
:1020B0004EF013EC26F047C078F148C079F149C0E2
:1020C0007AF14AC07BF174C147F075C148F076C11E
:1020D00049F077C14AF078C14BF079C14CF07AC130
:1020E0004DF07BC14EF013EC26F047C09CF148C088
:1020F0009DF149C09EF14AC09FF19CC1B8F19DC1BC
:10210000B9F19EC1BAF19FC1BBF1B8C190F1B9C19B
:1021100091F1BAC192F1BBC193F1000E010190158A
:10212000B86FF00E9115B96FFF0E9215BA6FFF0ED2
:102130009315BB6FB8C19CF1B9C19DF1BAC19EF1B5
:10214000BBC19FF174C15BF075C15CF076C15DF0FD
:1021500077C15EF09CC157F09DC158F09EC159F007
:102160009FC15AF014EC3DF057C094F158C095F15E
:1021700059C096F15AC097F178C157F079C158F01B
:102180007AC159F07BC15AF094C15BF095C15CF003
:1021900096C15DF097C15EF014EC3DF057C064F15C
:1021A00058C065F159C066F15AC067F19CC10FF083
:1021B0009DC110F09EC111F09FC112F0000E136E70
:1021C000400E146E760E156E3F0E166ED2EC2AF08F
:1021D0000FC020F110C021F111C022F112C023F173
:1021E0004F0E136E380E146E760E156E3F0E166E71
:1021F00064C10FF065C110F066C111F067C112F043
:10220000D2EC2AF00FC04BF010C04CF011C04DF0D2
:1022100012C04EF0C60E136E230E146EF60E156E1F
:10222000B80E166E9CC10FF09DC110F09EC111F04A
:102230009FC112F0D2EC2AF00FC047F010C048F056
:1022400011C049F012C04AF013EC26F047C058F113
:1022500048C059F149C05AF14AC05BF158C147F032
:1022600059C148F05AC149F05BC14AF0A0C1B4F06D
:10227000A1C1B5F00001D890B437B537D890B437C4
:10228000B537010EB425F66E080EB521F76E0900BC
:10229000F5CF4BF00900F5CF4CF00900F5CF4DF02C
:1022A0000A00F5CF4EF013EC26F047C024F148C0E9
:1022B00025F149C026F14AC027F17CC101F07DC15A
:1022C00002F07EC103F07FC104F0010E3EEC33F05A
:1022D00001C0B0F102C0B1F103C0B2F104C0B3F16A
:1022E00024C14BF025C14CF026C14DF027C14EF062
:1022F00020C147F021C148F022C149F023C14AF072
:1023000013EC26F047C058F148C059F149C05AF1C2
:102310004AC05BF1A0C1B4F0A1C1B5F00001D890F2
:10232000B437B537D890B437B537090EB425F66E43
:10233000080EB521F76E0900F5CF4BF00900F5CF77
:102340004CF00900F5CF4DF00A00F5CF4EF058C122
:1023500047F059C148F05AC149F05BC14AF013EC4B
:1023600026F047C008F148C009F149C00AF14AC047
:102370000BF108C147F009C148F00AC149F00BC18F
:102380004AF0B0C14BF0B1C14CF0B2C14DF0B3C195
:102390004EF013EC26F047C080F148C081F149C0EF
:1023A00082F14AC083F180C1B8F181C1B9F182C123
:1023B000BAF183C1BBF1B8C190F1B9C191F1BAC111
:1023C00092F1BBC193F1000E01019015B86FF00EB0
:1023D0009115B96FFF0E9215BA6FFF0E9315BB6F73
:1023E000B8C180F1B9C181F1BAC182F1BBC183F139
:1023F000B0C15BF0B1C15CF0B2C15DF0B3C15EF0E1
:1024000080C157F081C158F082C159F083C15AF0A0
:1024100014EC3DF057C094F158C095F159C096F1B5
:102420005AC097F1A0C1B4F0A1C1B5F00001D89095
:10243000B437B537D890B437B537090EB425F66E32
:10244000080EB521F76E0900F5CF5BF00900F5CF56
:102450005CF00900F5CF5DF00A00F5CF5EF094C1A5
:1024600057F095C158F096C159F097C15AF014EC45
:102470003DF057C040F158C041F159C042F15AC037
:1024800043F120C15BF021C15CF022C15DF023C1AA
:102490005EF040C157F041C158F042C159F043C10C
:1024A0005AF014EC3DF057C00CF158C00DF159C072
:1024B0000EF15AC00FF124C157F025C158F026C1C2
:1024C00059F027C15AF00CC15BF00DC15CF00EC190
:1024D0005DF00FC15EF014EC3DF057C01CF158C028
:1024E0001DF159C01EF15AC01FF1B0C0B8F1B1C002
:1024F000B9F1B2C0BAF1B3C0BBF1B8C190F1B9C182
:1025000091F1BAC192F1BBC193F1000E0101901596
:10251000B86FF00E9115B96FFF0E9215BA6FFF0EDE
:102520009315BB6FB8C128F1B9C129F1BAC12AF11D
:10253000BBC12BF180C113F081C114F082C115F031
:1025400083C116F028C15BF029C15CF02AC15DF09F
:102550002BC15EF0B0C057F0B1C058F0B2C059F016
:10256000B3C05AF014EC3DF057C00FF058C010F053
:1025700059C011F05AC012F0D2EC2AF00FC010F17D
:1025800010C011F111C012F112C013F110C147F0C7
:1025900011C148F012C149F013C14AF01CC113F037
:1025A0001DC114F01EC115F01FC116F0B0C00FF010
:1025B000B1C010F0B2C011F0B3C012F0D2EC2AF0EA
:1025C0000FC04BF010C04CF011C04DF012C04EF0D7
:1025D00013EC26F047C064F148C065F149C066F1CC
:1025E0004AC067F128C10FF029C110F02AC111F0CB
:1025F0002BC112F080C113F081C114F082C115F01B
:1026000083C116F0D2EC2AF00FC09CF110C09DF1EE
:1026100011C09EF112C09FF164C147F065C148F03E
:1026200066C149F067C14AF09CC14BF09DC14CF0B6
:102630009EC14DF09FC14EF013EC26F047C0B4F19F
:1026400048C0B5F149C0B6F14AC0B7F1B4C1B8F15C
:10265000B5C1B9F1B6C1BAF1B7C1BBF1B8C1ACF1FE
:10266000B9C1ADF1BAC1AEF1BBC1AFF10101AFBFAC
:1026700046EF13F0AC05000EAD59000EAE59430EF7
:10268000AF59D8A046EF13F048EF13F07EEF13F0E8
:10269000CA0E136EF20E146E490E156E710E166E82
:1026A00088C10FF089C110F08AC111F08BC112F0FE
:1026B000D2EC2AF00FC0A4F110C0A5F111C0A6F110
:1026C00012C0A7F1A4C10FF0A5C110F0A6C111F06E
:1026D000A7C112F0CA0E136EF20E146E490E156EDB
:1026E000710E166ED2EC2AF00FC0ACF010C0ADF037
:1026F00011C0AEF012C0AFF081EF19F0430EAF1968
:10270000AC11AD11AE11D8A488EF13F08AEF13F01D
:10271000FEEF13F09CC15BF09DC15CF09EC15DF0CB
:102720009FC15EF0B4C157F0B5C158F0B6C159F0C1
:10273000B7C15AF014EC3DF057C060F058C061F0DA
:1027400059C062F05AC063F03C0E4B6EAA0E4C6E3C
:10275000380E4D6E330E4E6E64C147F065C148F0C1
:1027600066C149F067C14AF013EC26F047C064F037
:1027700048C065F049C066F04AC067F065EC37F0C4
:102780000001D8B0C6EF13F0C8EF13F0C9EF14F092
:10279000CA0E136EF20E146E490E156E710E166E81
:1027A00088C10FF089C110F08AC111F08BC112F0FD
:1027B000D2EC2AF00FC0A4F110C0A5F111C0A6F10F
:1027C00012C0A7F1A4C10FF0A5C110F0A6C111F06D
:1027D000A7C112F0CA0E136EF20E146E490E156EDA
:1027E000710E166ED2EC2AF00FC0ACF010C0ADF036
:1027F00011C0AEF012C0AFF081EF19F0FF0EAC15B2
:102800000001B46FFF0E0101AD150001B56FFF0EA1
:102810000101AE150001B66F7F0E0101AF15000179
:10282000B76FB7BF20EF14F0B405000EB559160E00
:10283000B659430EB759D8A020EF14F022EF14F088
:1028400058EF14F0600E136E420E146EA20E156E49
:102850000D0E166E88C10FF089C110F08AC111F0FB
:102860008BC112F0D2EC2AF00FC0A4F110C0A5F178
:1028700011C0A6F112C0A7F1A4C10FF0A5C110F0BC
:10288000A6C111F0A7C112F0600E136E420E146EB5
:10289000A20E156E0D0E166ED2EC2AF00FC0ACF023
:1028A00010C0ADF011C0AEF012C0AFF081EF19F062
:1028B000160E0101AE1909E1C30EAF19AC11AD112D
:1028C000D8A465EF14F067EF14F0C9EF14F09CC1C1
:1028D0005BF09DC15CF09EC15DF09FC15EF0B4C134
:1028E00057F0B5C158F0B6C159F0B7C15AF014EC61
:1028F0003DF057C060F058C061F059C062F05AC056
:1029000063F064C164F065C165F066C166F067C1DB
:1029100067F065EC37F00001D8A091EF14F093EF69
:1029200014F0C9EF14F0600E136E420E146EA20E76
:10293000156E0D0E166E88C10FF089C110F08AC198
:1029400011F08BC112F0D2EC2AF00FC0A4F110C02C
:10295000A5F111C0A6F112C0A7F1A4C10FF0A5C145
:1029600010F0A6C111F0A7C112F0600E136E420E56
:10297000146EA20E156E0D0E166ED2EC2AF00FC05C
:10298000ACF010C0ADF011C0AEF012C0AFF081EFEE
:1029900019F0FF0E0101AC152C6FFF0EAD152D6F58
:1029A000FF0EAE152E6F7F0EAF152F6F170E0001A5
:1029B000B46F2CC1B5F02DC1B6F02EC1B7F02FC148
:1029C000B8F0B467E6EF14F0EEEF14F0B835B833B2
:1029D000B733B633B533B42FE1EF14F0810E0001F5
:1029E000B5250101A06FFF0E0001B6210101A16F05
:1029F000FF0E0001B7210101A26FFF0E0001B821F7
:102A00000101A36F000E7C6F000E7D6F000E7E6FC4
:102A1000000E7F6F2FBF19EF15F02C05000E2D59FA
:102A2000000E2E593F0E2F59D8A019EF15F01BEFAD
:102A300015F01FEF16F0A0C1B4F0010E0001B4278D
:102A4000000EB56F000EB66F800EB76F000EB86F38
:102A5000B4672DEF15F035EF15F0B835B833B7334F
:102A6000B633B533B42F28EF15F00101AC51000196
:102A7000B52501017C6FAD510001B62101017D6FCB
:102A8000AE510001B72101017E6FAF510001B821A5
:102A900001017F6F810E0001B46FFF0EB56FFF0E55
:102AA000B66FFF0EB76F170EB86F7CC1B9F07DC15E
:102AB000BAF07EC1BBF07FC1BCF0B86762EF15F021
:102AC0006AEF15F0BC35BC33BB33BA33B933B82F1A
:102AD0005DEF15F00001B951B4250101A06F000EA2
:102AE0000001B5210101A16F000E0001B621010115
:102AF000A26F000E0001B7210101A36FA0C1B4F0C5
:102B0000FF0E0001B56FFF0EB66F7F0EB76F000EA0
:102B1000B86FB4678EEF15F096EF15F0B835B8338F
:102B2000B733B633B533B42F89EF15F00001B51DB7
:102B3000B96FB61DBA6FB71DBB6FB81DBC6F010171
:102B40007C510001B9150101B86F7D510001BA1522
:102B50000101B96F7E510001BB150101BA6F7F51B0
:102B60000001BC150101BB6FB8C1B0F1B9C1B1F131
:102B7000BAC1B2F1BBC1B3F1A05117080001B46FE3
:102B8000FF0E01017C150001B56FFF0E01017D15DF
:102B90000001B66F7F0E01017E150001B76F000EB8
:102BA00001017F150001B86F000EB511B96F000E5D
:102BB000B611BA6F800EB711BB6F000EB811BC6FA3
:102BC000B467E5EF15F0EDEF15F0BC35BC33BB3362
:102BD000BA33B933B42FE0EF15F0B9C07CF1BAC005
:102BE0007DF1BBC07EF1BCC07FF10101AFBFFDEF45
:102BF00015F0FBEF15F005EF16F07F1F7E1F7D1F10
:102C00007C6D000E7D237E237F239CC157F09DC1E8
:102C100058F09EC159F09FC15AF0B0C15BF0B1C1EC
:102C20005CF0B2C15DF0B3C15EF014EC3DF057C092
:102C30009CF158C09DF159C09EF15AC09FF164C1EA
:102C400047F065C148F066C149F067C14AF09CC1D0
:102C50004BF09DC14CF09EC14DF09FC14EF013EC66
:102C600026F047C0B0F148C0B1F149C0B2F14AC046
:102C7000B3F1B0C1B8F1B1C1B9F1B2C1BAF1B3C1E8
:102C8000BBF1B8C190F1B9C191F1BAC192F1BBC128
:102C900093F1000E01019015B86F800E9115B96F78
:102CA000FF0E9215BA6FFF0E9315BB6FB8C1B0F14E
:102CB000B9C1B1F1BAC1B2F1BBC1B3F1B0C10FF04A
:102CC000B1C110F0B2C111F0B3C112F0000E136E19
:102CD000720E146E310E156E3F0E166ED2EC2AF087
:102CE0000FC074F110C075F111C076F112C077F108
:102CF0009CC15BF09DC15CF09EC15DF09FC15EF028
:102D0000B0C157F0B1C158F0B2C159F0B3C15AF0D7
:102D100014EC3DF057C094F158C095F159C096F1AC
:102D20005AC097F1180E136E720E146E310E156E96
:102D30003F0E166E94C15BF095C15CF096C15DF0DC
:102D400097C15EF064C157F065C158F066C159F093
:102D500067C15AF014EC3DF057C00FF058C010F0A6
:102D600059C011F05AC012F0D2EC2AF00FC014F181
:102D700010C015F111C016F112C017F114C147F0BF
:102D800015C148F016C149F017C14AF08C0E136EF8
:102D9000BE0E146EBF0E156E350E166EB0C10FF05E
:102DA000B1C110F0B2C111F0B3C112F0D2EC2AF0EF
:102DB0000FC04BF010C04CF011C04DF012C04EF0DF
:102DC00013EC26F047C078F148C079F149C07AF198
:102DD0004AC07BF174C147F075C148F076C149F033
:102DE00077C14AF078C14BF079C14CF07AC14DF00F
:102DF0007BC14EF013EC26F047C0B4F148C0B5F1EA
:102E000049C0B6F14AC0B7F174C15BF075C15CF05E
:102E100076C15DF077C15EF0B4C157F0B5C158F02E
:102E2000B6C159F0B7C15AF014EC3DF057C094F157
:102E300058C095F159C096F15AC097F178C157F032
:102E400079C158F07AC159F07BC15AF094C15BF056
:102E500095C15CF096C15DF097C15EF014EC3DF059
:102E600057C044F158C045F159C046F15AC047F126
:102E7000B4C10FF0B5C110F0B6C111F0B7C112F076
:102E8000B4C113F0B5C114F0B6C115F0B7C116F056
:102E9000D2EC2AF00FC0B0F110C0B1F111C0B2F104
:102EA00012C0B3F10E0E4B6EEA0E4C6EDD0E4D6E7F
:102EB000B50E4E6E4C0E136EBB0E146E310E156EAB
:102EC000330E166EB0C10FF0B1C110F0B2C111F0E7
:102ED000B3C112F0D2EC2AF00FC047F010C048F096
:102EE00011C049F012C04AF013EC26F047C0A4F11B
:102EF00048C0A5F149C0A6F14AC0A7F1550E4B6ED6
:102F0000B30E4C6E8A0E4D6E380E4E6EB0C113F07D
:102F1000B1C114F0B2C115F0B3C116F0A4C10FF0E5
:102F2000A5C110F0A6C111F0A7C112F0D2EC2AF091
:102F30000FC047F010C048F011C049F012C04AF06D
:102F400013EC26F047C054F148C055F149C056F182
:102F50004AC057F1610E4B6E0B0E4C6E360E4D6E25
:102F6000BB0E4E6EB0C113F0B1C114F0B2C115F07A
:102F7000B3C116F054C10FF055C110F056C111F095
:102F800057C112F0D2EC2AF00FC047F010C048F041
:102F900011C049F012C04AF013EC26F047C048F1C6
:102FA00048C049F149C04AF14AC04BF1AB0E4B6EE3
:102FB000AA0E4C6E2A0E4D6E3E0E4E6EB0C113F030
:102FC000B1C114F0B2C115F0B3C116F048C10FF091
:102FD00049C110F04AC111F04BC112F0D2EC2AF0F5
:102FE0000FC047F010C048F011C049F012C04AF0BD
:102FF00013EC26F047C038F148C039F149C03AF126
:103000004AC03BF1B4C157F0B5C158F0B6C159F050
:10301000B7C15AF0B0C113F0B1C114F0B2C115F08C
:10302000B3C116F038C10FF039C110F03AC111F038
:103030003BC112F0D2EC2AF00FC05BF010C05CF084
:1030400011C05DF012C05EF014EC3DF057C080F18D
:1030500058C081F159C082F15AC083F1000E4B6E05
:10306000000E4C6E000E4D6EC00E4E6E80C147F0CD
:1030700081C148F082C149F083C14AF013EC26F0C7
:1030800047C02CF048C02DF049C02EF04AC02FF0A8
:1030900080C113F081C114F082C115F083C116F014
:1030A000B4C10FF0B5C110F0B6C111F0B7C112F044
:1030B000D2EC2AF00FC028F010C029F011C02AF07D
:1030C00012C02BF0E7EC2CF028C03CF129C03DF1F8
:1030D0002AC03EF12BC03FF144C14BF045C14CF03A
:1030E00046C14DF047C14EF044C113F045C114F044
:1030F00046C115F047C116F0B4C10FF0B5C110F0CC
:10310000B6C111F0B7C112F0D2EC2AF00FC047F0EF
:1031100010C048F011C049F012C04AF013EC26F07C
:1031200047C018F148C019F149C01AF14AC01BF153
:103130003CC157F03DC158F03EC159F03FC15AF073
:1031400018C15BF019C15CF01AC15DF01BC15EF0E3
:1031500014EC3DF057C04CF158C04DF159C04EF140
:103160005AC04FF1B4C15BF0B5C15CF0B6C15DF0BF
:10317000B7C15EF04CC157F04DC158F04EC159F087
:103180004FC15AF014EC3DF057C094F158C095F17E
:1031900059C096F15AC097F1000E576E000E586E46
:1031A000800E596E3F0E5A6E94C15BF095C15CF073
:1031B00096C15DF097C15EF014EC3DF057C0B4F1DC
:1031C00058C0B5F159C0B6F15AC0B7F1B4C1B8F1A1
:1031D000B5C1B9F1B6C1BAF1B7C1BBF1B8C1ACF173
:1031E000B9C1ADF1BAC1AEF1BBC1AFF17CC1B4F0B0
:1031F0007DC1B5F07EC1B6F07FC1B7F0170ED89093
:103200000001B437B537B637B737E82EFFEF18F0FF
:10321000B4510101AC270001B5510101AD230001FA
:10322000B6510101AE230001B7510101AF23170EC2
:103230000001B46FACC1B5F0ADC1B6F0AEC1B7F02E
:10324000AFC1B8F0B46727EF19F02FEF19F0B83518
:10325000B833B733B633B533B42F22EF19F00001CA
:10326000B8BF3FEF19F0B851B711B61106E1B50577
:10327000D8B03DEF19F03FEF19F057EF19F0B4C196
:1032800028F0B5C129F0B6C12AF0B7C12BF07CC136
:103290002CF07DC12DF026EC30F028C0B4F129C00F
:1032A000B5F12AC0B6F12BC0B7F167EF19F0ACC188
:1032B000B8F1ADC1B9F1AEC1BAF1AFC1BBF1B8C19E
:1032C000B4F1B9C1B5F1BAC1B6F1BBC1B7F188C1AA
:1032D0000FF089C110F08AC111F08BC112F0B4C196
:1032E00013F0B5C114F0B6C115F0B7C116F0D2ECA9
:1032F0002AF00FC0ACF010C0ADF011C0AEF012C09B
:10330000AFF01200000E0101D76F000ED66FC9C0DA
:10331000E8F1CAC0E9F1CBC0EAF1CCC0EBF1EBBFF8
:1033200096EF19F094EF19F0ACEF19F0000ED76F8B
:10333000010ED66FE8C101F0E9C102F0EAC103F065
:10334000EBC104F0D1EC3DF001C0E8F102C0E9F1BD
:1033500003C0EAF104C0EBF1000E0101EF6F000EB3
:10336000EE6FFEC1DAF1FFC1DBF1D651D711D8A45F
:10337000BCEF19F0BEEF19F0C6EF19F00001FDA582
:10338000C4EF19F0C6EF19F0E1EF19F00101D651C1
:10339000D711D8A4CEEF19F0D0EF19F0D6EF19F06D
:1033A000000EBD6F2B0EBC6FDAEF19F0000EBD6F73
:1033B0002D0EBC6FBCC112F2EE4BEF2BDA07D8A07A
:1033C000DB07E8C101F0E9C102F0EAC103F0EBC19B
:1033D00004F0E8EC37F001040210D8A4F2EF19F081
:1033E000F4EF19F04CEF1AF0BF0E0001CE6FFF0E94
:1033F000CF6FCD51D06FD16BCE51D027CF51D123CC
:10340000D1510AE11A0ED05DD8A009EF1AF00CEFE5
:103410001AF0010E0DEF1AF0000E0101BE6FBF6B26
:10342000BE51BF11D8B417EF1AF019EF1AF027EFF9
:103430001AF0120EEE25016E020EEF21026EDA0E68
:10344000036E080E046E46EC3CF033EF1AF0120ED9
:10345000EE25016E020EEF21026EE20E036E080EE3
:10346000046E46EC3CF00101FD0EDA27FF0EDB2373
:10347000C7C011F0C8C012F0120E136E020E146E07
:10348000DAC115F0DBC116F0A5EC39F011C0C7F0B8
:1034900012C0C8F0CFEF1FF0E8C101F0E9C102F09F
:1034A000EAC103F0EBC104F0E8EC37F00150021080
:1034B000D8A45DEF1AF05FEF1AF0A0EF1AF0BF0E7C
:1034C0000001CE6FFF0ECF6FCD51D06FD16BCE51BB
:1034D000D027CF51D123D1510AE11A0ED05DD8A007
:1034E00074EF1AF077EF1AF0010E78EF1AF0000E71
:1034F0000101C06FC16BC051C111D8B482EF1AF085
:1035000084EF1AF092EF1AF0120EEE25016E020E01
:10351000EF21026EDE0E036E080E046E46EC3CF0E8
:1035200033EF1AF0120EEE25016E020EEF21026E3D
:10353000E60E036E080E046E46EC3CF033EF1AF014
:10354000000E0101F06F000EF16F800EF26F3F0E62
:10355000F36F000EED6F000EEC6FE8C101F0E9C1F2
:1035600002F0EAC103F0EBC104F0000E056E000E9C
:10357000066E000E076E000E086EC2EC3AF0D8B070
:10358000C4EF1AF0C6EF1AF04BEF1BF0E5EF1AF09C
:10359000F0C10FF0F1C110F0F2C111F0F3C112F05F
:1035A000000E136E000E146E200E156E410E166E78
:1035B000D2EC2AF00FC0F0F110C0F1F111C0F2F11D
:1035C00012C0F3F10101EC4BED2BE8C160F0E9C151
:1035D00061F0EAC162F0EBC163F0000E136E000E01
:1035E000146E200E156E410E166EF0C10FF0F1C173
:1035F00010F0F2C111F0F3C112F0D2EC2AF00FC0BA
:1036000064F010C065F011C066F012C067F065ECA0
:1036100037F00001D8B00FEF1BF011EF1BF0C8EF2F
:103620001AF031EF1BF0F0C128F0F1C129F0F2C11E
:103630002AF0F3C12BF0000E2C6E000E2D6E200E22
:103640002E6E410E2F6EE7EC2CF028C0F0F129C051
:10365000F1F12AC0F2F12BC0F3F10101EC07D8A07F
:10366000ED07E8C160F0E9C161F0EAC162F0EBC1C9
:1036700063F0F0C164F0F1C165F0F2C166F0F3C12E
:1036800067F065EC37F00001D8A049EF1BF04BEF75
:103690001BF013EF1BF0CDC007F0086AE7EC3BF01E
:1036A00007500101DD6FDDC1DCF1670EDD19D8A423
:1036B0005CEF1BF05EEF1BF086EF1BF00001FB518F
:1036C000FC11D8A466EF1BF068EF1BF06CEF1BF049
:1036D000000EFC6F010EFB6FFCBF79EF1BF0FC517D
:1036E00006E1FB05D8B077EF1BF079EF1BF080EF18
:1036F0001BF0000E0101D96F060ED86F90EF1BF082
:10370000FBC0D8F1FCC0D9F190EF1BF00001FCBF69
:103710008CEF1BF08EEF1BF079EF1BF080EF1BF0AE
:10372000670E0101DD19D8A498EF1BF09AEF1BF08A
:10373000D0EF1BF0EDAFA8EF1BF0FC0EEC5DFF0E21
:10374000ED59D8A0A6EF1BF0A8EF1BF0CDEF1BF0B2
:10375000FF0E0001CE6FFF0ECF6FD8C1D0F0D9C1E0
:10376000D1F0CE51D027CF51D1230101EC5100012E
:10377000D05DD151800AD26F0101ED51800A000164
:10378000D259D8A0C6EF1BF0C8EF1BF0CDEF1BF04D
:10379000660E0101DC6FD0EF1BF0650E0101DC6FDE
:1037A000D8C1CEF1D9C1CFF1670EDD19D8A4DBEFB6
:1037B0001BF0DDEF1BF0EDEF1BF0660EDC19D8A45B
:1037C000E4EF1BF0E6EF1BF0EFEF1BF0EDBFEDEFCA
:1037D0001BF0EBEF1BF0EFEF1BF0CE4BCF2B660E89
:1037E000DC19D8A4F6EF1BF0F8EF1BF018EF1CF073
:1037F000EDBFFFEF1BF0FDEF1BF00BEF1CF0000E19
:10380000F06F000EF16F800EF26F3F0EF36F000E3F
:10381000ED6F000EEC6F670EDD19D8B412EF1CF0DF
:1038200014EF1CF018EF1CF0EC51CE27ED51CF2314
:10383000000EE76F000EE66FE8C1DEF1E9C1DFF1CF
:10384000EAC1E0F1EBC1E1F1F0C1D0F1F1C1D1F198
:10385000F2C1D2F1F3C1D3F1A9EF1CF0DEC128F01F
:10386000DFC129F0E0C12AF0E1C12BF0F0C12CF05A
:10387000F1C12DF0F2C12EF0F3C12FF0E7EC2CF0E6
:1038800028C041F029C042F02AC043F02BC044F0C8
:1038900040EC31F041C0E2F142C0E3F143C0E4F159
:1038A00044C0E5F1E2C1BDF0E3C1BEF0E4C1BFF048
:1038B000E5C1C0F0E1EC36F0BDC0D4F1BEC0D5F139
:1038C000DEC157F0DFC158F0E0C159F0E1C15AF054
:1038D000F0C113F0F1C114F0F2C115F0F3C116F00C
:1038E000E2C10FF0E3C110F0E4C111F0E5C112F044
:1038F000D2EC2AF00FC05BF010C05CF011C05DF09C
:1039000012C05EF014EC3DF057C0DEF158C0DFF19C
:1039100059C0E0F15AC0E1F1F0C128F0F1C129F03D
:10392000F2C12AF0F3C12BF0000E2C6E000E2D6EAA
:10393000200E2E6E410E2F6EE7EC2CF028C0F0F119
:1039400029C0F1F12AC0F2F12BC0F3F10101E64BDD
:10395000E72BCE51E65DE751800A0001CE6F0101F1
:10396000CF51800A0001CE59D8A0B9EF1CF0BBEFAF
:103970001CF02EEF1CF0F0C10FF0F1C110F0F2C1FD
:1039800011F0F3C112F0000E136E000E146EA00EB3
:10399000156E400E166ED2EC2AF00FC0E2F110C088
:1039A000E3F111C0E4F112C0E5F1DEC160F0DFC166
:1039B00061F0E0C162F0E1C163F0E2C164F0E3C133
:1039C00065F0E4C166F0E5C167F065EC37F0000131
:1039D000D8B0EDEF1CF0EFEF1CF0FAEF1CF0000E8A
:1039E0000101E26F000EE36F000EE46F000EE56F61
:1039F00023EF1DF0DEC101F0DFC102F0E0C103F0F2
:103A0000E1C104F0E2C105F0E3C106F0E4C107F052
:103A1000E5C108F0C2EC3AF0D8A011EF1DF013EFA9
:103A20001DF023EF1DF00101D4B119EF1DF01BEFC4
:103A30001DF023EF1DF0000EE26F000EE36F000E8D
:103A4000E46F000EE56FE8C147F0E9C148F0EAC154
:103A500049F0EBC14AF0E2C14BF0E3C14CF0E4C1E4
:103A60004DF0E5C14EF013EC26F047C0DEF148C042
:103A7000DFF149C0E0F14AC0E1F1DEC160F0DFC131
:103A800061F0E0C162F0E1C163F0000E136E000E60
:103A9000146E200E156E410E166ED0C10FF0D1C1FE
:103AA00010F0D2C111F0D3C112F0D2EC2AF00FC045
:103AB00064F010C065F011C066F012C067F065ECEC
:103AC00037F00001D8A067EF1DF069EF1DF092EF0D
:103AD0001DF00101EC4BED2BD0C10FF0D1C110F066
:103AE000D2C111F0D3C112F0000E136E000E146E8D
:103AF000200E156E410E166ED2EC2AF00FC0D0F1DA
:103B000010C0D1F111C0D2F112C0D3F1660E010183
:103B1000DC19D8A48EEF1DF090EF1DF092EF1DF090
:103B2000CE4BCF2BD0C1F0F1D1C1F1F1D2C1F2F126
:103B3000D3C1F3F1650E0101DC19D8B4A2EF1DF079
:103B4000A4EF1DF0AAEF1DF0ECC1CCF1EDC1CDF159
:103B5000AEEF1DF0000ECD6F000ECC6F000ECB6FE0
:103B6000000ECA6F000EC96F000EC86F000EE76F1F
:103B7000000EE66FABEF1EF0DEC128F0DFC129F0CA
:103B8000E0C12AF0E1C12BF0F0C12CF0F1C12DF021
:103B9000F2C12EF0F3C12FF0E7EC2CF028C041F079
:103BA00029C042F02AC043F02BC044F040EC31F071
:103BB00041C0E2F142C0E3F143C0E4F144C0E5F1A9
:103BC000E2C1BDF0E3C1BEF0E4C1BFF0E5C1C0F0A9
:103BD000E1EC36F0BDC0D4F1BEC0D5F10001FDB9B5
:103BE000F4EF1DF0F6EF1DF014EF1EF00101D451BB
:103BF000D511D8A4FEEF1DF000EF1EF014EF1EF05B
:103C0000670EDD19D8A407EF1EF009EF1EF014EFC0
:103C10001EF0CDBF10EF1EF00EEF1EF014EF1EF0E1
:103C2000C84BC92B5FEF1EF00101CA51CB11D8A4BC
:103C30001CEF1EF01EEF1EF048EF1EF0CDBF25EF6B
:103C40001EF023EF1EF048EF1EF0120EEE25D96E87
:103C5000020EEF21DA6E2E0EDF6EEE4BEF2BDA073F
:103C6000D8A0DB07000ECB6F010ECA6F48EF1EF025
:103C7000120EEE25D96E020EEF21DA6E300EDF6ED7
:103C8000EE4BEF2BDA07D8A0DB07C807D8A0C9078F
:103C9000C851C911D8A44FEF1EF051EF1EF038EFF4
:103CA0001EF0120EEE25D96E020EEF21DA6ED451FF
:103CB000300FDF6EEE4BEF2BDA07D8A0DB07DEC14B
:103CC00057F0DFC158F0E0C159F0E1C15AF0F0C13E
:103CD00013F0F1C114F0F2C115F0F3C116F0E2C116
:103CE0000FF0E3C110F0E4C111F0E5C112F0D2EC25
:103CF0002AF00FC05BF010C05CF011C05DF012C084
:103D00005EF014EC3DF057C0DEF158C0DFF159C051
:103D1000E0F15AC0E1F1F0C128F0F1C129F0F2C19F
:103D20002AF0F3C12BF0000E2C6E000E2D6E200E2B
:103D30002E6E410E2F6EE7EC2CF028C0F0F129C05A
:103D4000F1F12AC0F2F12BC0F3F10101CC07D8A0A8
:103D5000CD07E64BE72BCE51E65DE751800A000127
:103D6000CE6F0101CF51800A0001CE59D8B0BBEF10
:103D70001EF0BDEF1EF0CCEF1EF00101EFBFCAEF49
:103D80001EF0EF5109E14B0EEE5DD8A0CAEF1EF018
:103D9000CCEF1EF0BCEF1DF00101CA51CB11D8A42D
:103DA000D4EF1EF0D6EF1EF0E9EF1EF00001FDA9E2
:103DB000DCEF1EF0DEEF1EF0E9EF1EF0120E010147
:103DC000EE25D96E020EEF21DA6E2E0EDF6EEE4B6F
:103DD000EF2B120E0101EE25D96E020EEF21DA6EE5
:103DE000000EDF6E650EDC19D8A4F9EF1EF0FBEFB4
:103DF0001EF038EF1AF0000EE76F4F0EE66F120E4E
:103E0000E625D96E020EE721DA6E000EDF6E000E97
:103E1000D76F000ED66FEDBF12EF1FF010EF1FF03F
:103E20001AEF1FF0000ED76F010ED66FEC6DED1F6D
:103E3000D8B0ED2B000ED96F020ED86F4BEF1FF0EC
:103E4000E607D8A0E707120EE625D96E020EE72195
:103E5000DA6EECC101F0EDC102F0000E046E0A0E44
:103E6000036E6AEC3AF00150300FDF6EECC101F0E6
:103E7000EDC102F0000E046E0A0E036E08EC3AF07B
:103E800001C0ECF102C0EDF10101D807D8A0D907BB
:103E9000DA07D8A0DB07EC51ED11D8A452EF1FF0E0
:103EA00054EF1FF020EF1FF0D9BF61EF1FF0D95181
:103EB00006E1D805D8B05FEF1FF061EF1FF020EFEB
:103EC0001FF0E607D8A0E707D651D711D8A46BEFAB
:103ED0001FF06DEF1FF073EF1FF0000EC36F2B0E7E
:103EE000C26F77EF1FF0000EC36F2D0EC26F120E60
:103EF000E625D96E020EE721DA6EC2C1DFFFDA07CE
:103F0000D8A0DB07E607D8A0E707BF0E0001CE6FF9
:103F1000FF0ECF6FCD51D06FD16BCE51D027CF5187
:103F2000D123D1510AE11A0ED05DD8A09AEF1FF02B
:103F30009DEF1FF0010E9EEF1FF0000E0101C66FF6
:103F4000C76BC651C711D8A4A8EF1FF0AAEF1FF086
:103F5000B0EF1FF0000EC56F650EC46FB4EF1FF019
:103F6000000EC56F450EC46F120EE625D96E020E07
:103F7000E721DA6EC4C1DFFFDA07D8A0DB07120E33
:103F8000EE25016E020EEF21026E120EE625036E83
:103F9000020EE721046E46EC3CF038EF1AF01200F6
:103FA0000CC2A0F00DC2A1F00EC2A2F00FC2A3F08D
:103FB00060C0A0F061C0A1F062C0A2F063C0A3F035
:103FC000A0C0A8F0A1C0A9F0A2C0AAF0A3C0ABF005
:103FD000000E0001876F000E866FAB5109E1800E65
:103FE000AA5DD8A0F6EF1FF0F8EF1FF016EF20F053
:103FF000A8C064F0A9C065F0AAC066F0ABC067F0C5
:10400000200E08EF20F0D8906733663365336433B1
:10401000E82E03EF20F06451651166116711D8B4E2
:1040200014EF20F016EF20F0D9EF20F0D890A8354B
:10403000646FA935656FAA35666FAB35676F6451DC
:10404000651166116711D8A428EF20F02AEF20F03F
:1040500058EF20F0000E286E000E296E800E2A6E9A
:10406000BF0E2B6E60C013F061C014F062C015F07B
:1040700063C016F060C00FF061C010F062C011F0B4
:1040800063C012F0D2EC2AF00FC02CF010C02DF05B
:1040900011C02EF012C02FF0E7EC2CF028C060F019
:1040A00029C061F02AC062F02BC063F076EF23F0E4
:1040B000A8C064F0A9C065F0AAC066F0ABC067F004
:1040C000200E68EF20F0D890673366336533643391
:1040D000E82E63EF20F06451651166116711D8B4C2
:1040E00074EF20F076EF20F0A9EF20F0000E02012F
:1040F000116F210E106F60C05BF061C05CF062C098
:104100005DF063C05EF060C057F061C058F062C0FF
:1041100059F063C05AF014EC3DF057C028F058C075
:1041200029F059C02AF05AC02BF0000E2C6E000E58
:104130002D6E000E2E6E000E2F6EE7EC2CF028C0B8
:1041400060F029C061F02AC062F02BC063F076EF06
:1041500023F0E70E8627FF0E872360C00FF061C0B3
:1041600010F062C011F063C012F0000E136E000E6A
:10417000146E000E156E4C0E166ED2EC2AF00FC0A7
:1041800060F010C061F011C062F012C063F060C056
:10419000A0F061C0A1F062C0A2F063C0A3F0A0C013
:1041A000A8F0A1C0A9F0A2C0AAF0A3C0ABF006EF8E
:1041B00021F0800EAA5D7F0EAB59D8A0E2EF20F06F
:1041C000E4EF20F0EEEF20F060C060F061C061F03D
:1041D00062C062F063C063F076EF23F0800EAA192C
:1041E00009E13F0EAB19A811A911D8A4FAEF20F0EC
:1041F000FCEF20F006EF21F0000E606F000E616F03
:10420000000E626F000E636F76EF23F00D0E00015B
:10421000A827FB0EA9234A0EAA23000EAB23810E6A
:10422000646FFF0E656FA8C066F0A9C067F0AAC0F2
:1042300068F0ABC069F0180E23EF21F0D890693315
:10424000683367336633E82E1EEF21F0645166272A
:10425000655167236651862767518723FF0EA8158E
:10426000646FFF0EA915656F7F0EAA15666F000EAD
:10427000AB15676FF30E6425A86F040E6521A96F57
:10428000350E6621AA6F3F0E6721AB6FA8C0A0F064
:10429000A9C0A1F0AAC0A2F0ABC0A3F0A0C060F07A
:1042A000A1C061F0A2C062F0A3C063F060C047F09B
:1042B00061C048F062C049F063C04AF0000E4B6E26
:1042C000000E4C6E800E4D6EBF0E4E6E13EC26F03F
:1042D00047C0A4F048C0A5F049C0A6F04AC0A7F066
:1042E000A4C028F0A5C029F0A6C02AF0A7C02BF0D2
:1042F000000E4B6E000E4C6E000E4D6E400E4E6E5C
:10430000A4C047F0A5C048F0A6C049F0A7C04AF035
:1043100013EC26F047C02CF048C02DF049C02EF019
:104320004AC02FF0E7EC2CF028C090F029C091F0A3
:104330002AC092F02BC093F090C00FF091C010F003
:1043400092C011F093C012F090C013F091C014F01D
:1043500092C015F093C016F0D2EC2AF00FC094F082
:1043600010C095F011C096F012C097F094C00FF0F5
:1043700095C010F096C011F097C012F094C013F0E1
:1043800095C014F096C015F097C016F0D2EC2AF044
:104390000FC098F010C099F011C09AF012C09BF0B5
:1043A000130E4B6ECE0E4C6ECC0E4D6E3E0E4E6E00
:1043B000260E136E9E0E146E780E156E3E0E166E41
:1043C00098C00FF099C010F09AC011F09BC012F085
:1043D000D2EC2AF00FC047F010C048F011C049F0ED
:1043E00012C04AF013EC26F047C09CF048C09DF084
:1043F00049C09EF04AC09FF09CC00FF09DC010F0D5
:104400009EC011F09FC012F098C013F099C014F034
:104410009AC015F09BC016F0D2EC2AF00FC06EF0D7
:1044200010C06FF011C070F012C071F0AA0E4B6E88
:10443000AA0E4C6E2A0E4D6E3F0E4E6EEE0E136E91
:10444000E90E146E910E156E3E0E166E98C00FF0AA
:1044500099C010F09AC011F09BC012F0D2EC2AF073
:104460000FC047F010C048F011C049F012C04AF028
:1044700013EC26F047C09CF048C09DF049C09EF068
:104480004AC09FF09CC00FF09DC010F09EC011F07C
:104490009FC012F094C013F095C014F096C015F0B0
:1044A00097C016F0D2EC2AF00FC072F010C073F073
:1044B00011C074F012C075F072C047F073C048F0BC
:1044C00074C049F075C04AF06EC04BF06FC04CF03C
:1044D00070C04DF071C04EF013EC26F047C06AF08A
:1044E00048C06BF049C06CF04AC06DF0000E136E0E
:1044F000000E146E000E156E3F0E166EA4C00FF067
:10450000A5C010F0A6C011F0A7C012F0D2EC2AF09E
:104510000FC09CF010C09DF011C09EF012C09FF023
:104520009CC00FF09DC010F09EC011F09FC012F013
:10453000A4C013F0A5C014F0A6C015F0A7C016F0D3
:10454000D2EC2AF00FC088F010C089F011C08AF0B8
:1045500012C08BF086C001F087C002F0000E02BED0
:10456000FF0E036E046E010E3EEC33F001C08CF0C2
:1045700002C08DF003C08EF004C08FF090C013F025
:1045800091C014F092C015F093C016F06AC04BF0C1
:104590006BC04CF06CC04DF06DC04EF088C047F061
:1045A00089C048F08AC049F08BC04AF013EC26F06D
:1045B00047C00FF048C010F049C011F04AC012F0D7
:1045C000D2EC2AF00FC076F010C077F011C078F06E
:1045D00012C079F0D10E136EF70E146E170E156E11
:1045E000370E166E8CC00FF08DC010F08EC011F01B
:1045F0008FC012F0D2EC2AF00FC04BF010C04CF07C
:1046000011C04DF012C04EF076C047F077C048F0B0
:1046100078C049F079C04AF013EC26F047C07AF030
:1046200048C07BF049C07CF04AC07DF088C05BF098
:1046300089C05CF08AC05DF08BC05EF07AC057F034
:104640007BC058F07CC059F07DC05AF014EC3DF0AE
:1046500057C07EF058C07FF059C080F05AC081F03A
:10466000A4C04BF0A5C04CF0A6C04DF0A7C04EF0C2
:104670007EC047F07FC048F080C049F081C04AF05A
:1046800013EC26F047C082F048C083F049C084F0A4
:104690004AC085F082C047F083C048F084C049F02A
:1046A00085C04AF0800E136E710E146E310E156EB9
:1046B0003F0E166E8CC00FF08DC010F08EC011F042
:1046C0008FC012F0D2EC2AF00FC04BF010C04CF0AB
:1046D00011C04DF012C04EF013EC26F047C060F050
:1046E00048C061F049C062F04AC063F01200D5C012
:1046F000D9FFD6C0DAFFDECFF6FFDDCFF7FF080027
:10470000F550250AD8A487EF23F089EF23F0F7EFBF
:1047100025F0D5C0D9FFD6C0DAFFDE2A000EDD2293
:10472000000E0101FF6F000EFE6FFEC1FDF0FFC124
:10473000FEF00001FB69FC69D5C0D9FFD6C0DAFFE5
:10474000DECFF6FFDDCFF7FF0800F5502E0AD8A424
:10475000ACEF23F0AEEF23F02CEF24F0000EFC6F53
:10476000000EFB6FD5C0D9FFD6C0DAFFDE2A000EDF
:10477000DD22D5C0D9FFD6C0DAFFDECFF6FFDDCF10
:10478000F7FF0800F5502A0AD8A4C9EF23F0CBEFB1
:1047900023F0E8EF23F0D5C0D9FFD6C0DAFFDE2A38
:1047A000000EDD22D7C0D9FFD8C0DAFFDFCFD9F0A5
:1047B000020EDE26DFCFDAF0000EDD22D9C0D9FFEF
:1047C000DAC0DAFFDECFFBF0DDCFFCF02CEF24F017
:1047D000D5C0D9FFD6C0DAFFDECF08F0DDCF09F0B3
:1047E00018EC34F008C0FBF009C0FCF0FFEF23F038
:1047F000D5C0D9FFD6C0DAFFDE2A000EDD22D00EEA
:104800000001D96FFF0EDA6FD5C0D9FFD6C0DAFF2D
:10481000DECFF6FFDDCFF7FF0800F550DB6FDC6B76
:10482000D951DB27DA51DC23DC510AE10A0EDB5DCA
:10483000D8A01DEF24F020EF24F0010E21EF24F08A
:10484000000EE56FE66BE551E611D8A42AEF24F0DF
:104850002CEF24F0F8EF23F0D5C0D9FFD6C0DAFF53
:10486000DECFF6FFDDCFF7FF0800F550076E086AD0
:10487000E7EC3BF007500001ED6FED51D8B443EF8A
:1048800024F045EF24F07FEF24F0D5C0D9FFD6C047
:10489000DAFFDECFD9F0DDCFDAF0010ED927000E36
:1048A000DA23D9C0F6FFDAC0F7FF0800F550076E2B
:1048B000086AE7EC3BF007500001EE6FEE51D8B408
:1048C00064EF24F066EF24F07FEF24F0D5C0D9FF29
:1048D000D6C0DAFFDECFD9F0DDCFDAF0020ED9276D
:1048E000000EDA23D9C0F6FFDAC0F7FF0800F55052
:1048F000076E086AE7EC3BF007500001EF6FD5C088
:10490000D9FFD6C0DAFFDECFF6FFDDCFF7FF080014
:10491000F550640AD8B48FEF24F091EF24F0A3EFA0
:1049200024F0D5C0D9FFD6C0DAFFDECFF6FFDDCF49
:10493000F7FF0800F550690AD8A4A1EF24F0A3EF0F
:1049400024F0E3EF24F0D5C0D9FFD6C0DAFFDE2A89
:10495000000EDD22D7C0D9FFD8C0DAFFDFCFD9F0F3
:10496000020EDE26DFCFDAF0000EDD22D9C0D9FF3D
:10497000DAC0DAFFDECFDDF0DDCFDEF0000EDEBF25
:10498000FF0EDF6FE06FE16FE26FE36FE46FD3C0A4
:104990001CF0D4C01DF0DDC01EF0DEC01FF0DFC073
:1049A00020F0E0C021F0E1C022F0E2C023F0E3C03B
:1049B00024F0E4C025F0B4EC2EF01CC0D3F01DC0F0
:1049C000D4F012EF26F0660EED19D8A4EAEF24F029
:1049D000ECEF24F02CEF25F0D5C0D9FFD6C0DAFFDC
:1049E000DECFF6FFDDCFF7FF0800F5CFF0F0D5C042
:1049F000D9FFD6C0DAFFDE2A000EDD22D7C0D9FFEC
:104A0000D8C0DAFFDFCFD9F0040EDE26DFCFDAF030
:104A1000000EDD22D9C0D9FFDAC0DAFFDECFE9F01F
:104A2000DECFEAF0DECFEBF0DECFECF0D3C0C7F0A4
:104A3000D4C0C8F0E9C0C9F0EAC0CAF0EBC0CBF0FE
:104A4000ECC0CCF0F0C0CDF082EC19F0C7C0D3F0D0
:104A5000C8C0D4F012EF26F0ED0E016E000E026E0B
:104A6000EE0E036E080E046E000E066E020E056E4C
:104A7000D5EC38F001500210D8A441EF25F043EFF7
:104A800025F0BFEF25F0D5C0D9FFD6C0DAFFDECFC5
:104A9000D9F0DDCFDAF0010E0001D927000EDA23BC
:104AA000D9C0F6FFDAC0F7FF0800F5CFF0F0BF0E6F
:104AB000D96FFF0EDA6FD5C0D9FFD6C0DAFFDECFCF
:104AC000F6FFDDCFF7FF0800F550DB6FDC6BD95147
:104AD000DB27DA51DC23DC510AE11A0EDB5DD8A0BA
:104AE00074EF25F077EF25F0010E78EF25F0000E3A
:104AF000E76FE86BE751E811D8B481EF25F083EF59
:104B000025F09DEF25F0D7C0D9FFD8C0DAFFDFCF61
:104B1000D9F0040EDE26DFCFDAF0000EDD22D9C098
:104B2000D9FFDAC0DAFFDECFE9F0DECFEAF0DECF80
:104B3000EBF0DECFECF0B5EF25F0D7C0D9FFD8C051
:104B4000DAFFDFCFD9F0040EDE26DFCFDAF0000E79
:104B5000DD22D9C0D9FFDAC0DAFFDECFE9F0DECF3F
:104B6000EAF0DECFEBF0DECFECF0020ED5C0D9FFDD
:104B7000D6C0DAFFDE26000EDD2216EF25F0D5C006
:104B8000D9FFD6C0DAFFDECFF6FFDDCFF7FF080092
:104B9000F550250AD8A4CFEF25F0D1EF25F0E9EFA5
:104BA00025F0D5C0D9FFD6C0DAFFDE2A000EDD22FF
:104BB000000E026E250E016ED3C003F0D4C004F0C7
:104BC00040EC39F0000E0001D46F010ED36F12EFEC
:104BD00026F0D5C0D9FFD6C0DAFFDE2A000EDD22CE
:104BE000000E0001D46F000ED36F12EF26F0D5C077
:104BF000D9FFD6C0DAFFDECFF6FFDDCFF7FF080022
:104C0000F550016E026AD3C003F0D4C004F040EC4A
:104C100039F0D5C0D9FFD6C0DAFFDE2A000EDD227A
:104C2000E2EF25F012004A50800B536E4A504A249E
:104C3000556E49AE1EEF26F020EF26F021EF26F04C
:104C400055805550D8B427EF26F029EF26F03EEFD7
:104C500026F05528D8A42FEF26F031EF26F039EFB3
:104C600026F0000E476E000E486E000E496E000ED4
:104C70004A6E498E000E4A6E46EF26F0000E476ED1
:104C8000000E486E000E496E000E4A6E4E50800BAC
:104C9000546E53505418D8B450EF26F052EF26F00B
:104CA00053EF26F0538C4E504E24546E4DAE5BEFB6
:104CB00026F05DEF26F05EEF26F054805450D8B415
:104CC00064EF26F066EF26F07BEF26F05428D8A498
:104CD0006CEF26F06EEF26F076EF26F0000E4B6EAE
:104CE000000E4C6E000E4D6E000E4E6E4D8E000E80
:104CF0004E6E83EF26F0000E4B6E000E4C6E000ED3
:104D00004D6E000E4E6E5550545CD8B08AEF26F0B2
:104D10008CEF26F0B3EF26F053AC91EF26F093EF33
:104D200026F095EF26F0800E531A55C056F054C069
:104D300055F056C054F047C056F04BC047F056C02F
:104D40004BF048C056F04CC048F056C04CF049C03B
:104D500056F04DC049F056C04DF04AC056F04EC016
:104D60004AF056C04EF0000E566E555054C04FF0EB
:104D7000506A4F5E000E505A50BEC8EF26F0505099
:104D800009E11A0E4F5CD8A0C8EF26F0CAEF26F052
:104D900001EF27F04750481049104A10D8A4D3EF2C
:104DA00026F0D6EF26F0010ED7EF26F0000E566E55
:104DB000000E476E000E486E000E496E000E4A6EE1
:104DC00054C055F00AEF27F056A0E9EF26F0EBEFBC
:104DD00026F0F1EF26F0D89056300109566EF3EF29
:104DE00026F0D890563247A0F8EF26F0FAEF26F0DA
:104DF000FBEF26F0568E4A344A3249324832473267
:104E0000552A5450555CD8A008EF27F00AEF27F038
:104E1000E4EF26F053BC0FEF27F011EF27F051EF2E
:104E200027F05550D8A417EF27F019EF27F023EFFC
:104E300027F0000E476E000E486E000E496E000E01
:104E40004A6E72EF28F04B5047264C5048224D5086
:104E500049224E504A224AA030EF27F032EF27F085
:104E6000DEEF27F056A037EF27F039EF27F03FEFBE
:104E700027F0D89056300109566E41EF27F0D890B0
:104E8000563247A046EF27F048EF27F049EF27F0CA
:104E9000568E4A344A32493248324732552ADEEF7A
:104EA00027F04B50475C4C5048584D5049584A5099
:104EB000800A4F6E4E50800A4F58D8B062EF27F0EC
:104EC00064EF27F08FEF27F047504B5C4F6E485050
:104ED0004C58506E49504D58516E4A504E58526E73
:104EE000FF0E4F24476EFF0E5020486EFF0E5120DC
:104EF000496EFF0E52204A6E800E531A566C565061
:104F0000D8A485EF27F087EF27F097EF27F0010E61
:104F10004726000E482249224A2297EF27F04B509D
:104F2000475E4C50485A4D50495A4E504A5A475085
:104F3000481049104A10D8A4A0EF27F0A2EF27F09C
:104F4000D7EF27F05650D8A4A8EF27F0AAEF27F004
:104F5000D7EF27F0000E476E000E486E000E496E28
:104F6000000E4A6E72EF28F0D89047364836493620
:104F70004A3656AEBEEF27F0C0EF27F0C1EF27F05C
:104F8000478056A0C6EF27F0C8EF27F0CCEF27F0F8
:104F9000D8805636CEEF27F0D89056365550D8B434
:104FA000D4EF27F0D6EF27F0D7EF27F0550649AE1C
:104FB000DCEF27F0DEEF27F0B4EF27F0000E546EA1
:104FC00056AEE5EF27F0E7EF27F0FFEF27F056C0EA
:104FD0004FF07F0E4F16D8B4F0EF27F0F2EF27F026
:104FE000F6EF27F0010E546EFFEF27F047A0FBEF1E
:104FF00027F0FDEF27F0FFEF27F0F2EF27F05450F6
:10500000D8B405EF28F007EF28F032EF28F0010EB2
:105010004726000E482249224A224AA012EF28F0D1
:1050200014EF28F032EF28F047C04FF048C050F09E
:1050300049C051F04AC052F05234523251325032CB
:105040004F324FC047F050C048F051C049F052C0F5
:105050004AF05528D8B42FEF28F031EF28F032EF7E
:1050600028F0552A5528D8B438EF28F03AEF28F020
:1050700042EF28F05550D8A440EF28F042EF28F036
:1050800054EF28F0000E476E000E486E000E496E79
:10509000000E4A6E5550D8A450EF28F052EF28F079
:1050A00054EF28F0000E536E55A059EF28F05BEF37
:1050B00028F05EEF28F0498E5FEF28F0499ED890E7
:1050C00055304A6E53AE67EF28F069EF28F06AEF6B
:1050D00028F04A8E47C047F048C048F049C049F020
:1050E0004AC04AF012006CC081F06DC082F06EC000
:1050F00083F06FC084F081C099F082C09AF083C0C1
:105100009BF084C09CF0000E00019915706F000E9A
:105110009A15716F800E9B15726F7F0E9C15736FC1
:10512000800E721909E17F0E731970117111D8A4E4
:105130009CEF28F09EEF28F0CCEF28F06CC013F025
:105140006DC014F06EC015F06FC016F06CC00FF09B
:105150006DC010F06EC011F06FC012F0D2EC2AF0EA
:105160000FC047F010C048F011C049F012C04AF01B
:105170006CC04BF06DC04CF06EC04DF06FC04EF087
:1051800013EC26F047C06CF048C06DF049C06EF0DB
:105190004AC06FF0D1EF2AF09CBFDBEF28F09C51A2
:1051A0009B119A1106E19905D8B0D9EF28F0DBEFF1
:1051B00028F018EF29F0FF0E9915706FFF0E9A1561
:1051C000716FFF0E9B15726F7F0E9C15736F705180
:1051D000711172117311D8A4F0EF28F0F2EF28F0DA
:1051E000FCEF28F06CC06CF06DC06DF06EC06EF01E
:1051F0006FC06FF0D1EF2AF09CBF03EF29F001EFF1
:1052000029F018EF29F0000E0201116F210E106F26
:10521000C60E016E080E026E72EC3EF001C06CF01C
:1052200002C06DF003C06EF004C06FF0D1EF2AF041
:10523000170E706F99C071F09AC072F09BC073F036
:105240009CC074F0706727EF29F02FEF29F07435B8
:105250007433733372337133702F22EF29F071C0BE
:1052600091F072C092F073C093F074C094F000019A
:105270009151921193119411D8A441EF29F043EF69
:1052800029F073EF29F0000E7D6F000E7E6F000E87
:105290007F6F000E806F58EF29F0D89099379A37BA
:1052A0009B379C37010E7D27000E7E237F238023B2
:1052B0009BAF5DEF29F05FEF29F04DEF29F0FF0E76
:1052C0007D25706FFF0E7E21716FFF0E7F21726F43
:1052D000FF0E8021736F7051915F7151925B72511B
:1052E000935B7351945B810E9127FF0E9223FF0E07
:1052F0009323FF0E9423FF0E9915706FFF0E9A15DE
:10530000716F7F0E9B15726F000E9C15736F000EF0
:105310007011996F000E71119A6F800E72119B6F50
:10532000000E73119C6F91A198EF29F09AEF29F06C
:10533000A2EF29F0995199279A519A239B519B23C7
:105340009C519C23943594339333923391339951E8
:1053500099279A519A239B519B239C519C23000E81
:10536000796F000E7A6F000E7B6F000E7C6F79C034
:1053700085F07AC086F07BC087F07CC088F0000E94
:10538000956F000E966F000E976F010E986F11EFDC
:105390002AF079519525896F7A5196218A6F7B5130
:1053A00097218B6F7C5198218C6F8951995D8A511F
:1053B0009A598B519B599C51800A706F8C51800A6D
:1053C0007059D8A0E6EF29F0E8EF29F004EF2AF0B1
:1053D00089519525796F8A5196217A6F8B51972142
:1053E0007B6F8C5198217C6F8951995F8A519A5BB0
:1053F0008B519B5B8C519C5B9551852796518623E5
:105400009751872398518823995199279A519A2324
:105410009B519B239C519C23D89098339733963370
:1054200095339551961197119811D8A41AEF2AF037
:105430001CEF2AF0C9EF29F099519A119B119C1188
:10544000D8B425EF2AF027EF2AF087EF2AF0000ED4
:105450008D6F000E8E6F800E8F6F3F0E906F8DC020
:1054600060F08EC061F08FC062F090C063F0000EFB
:10547000646F000E656F800E666F3F0E676F65ECA0
:1054800037F00001D8A047EF2AF049EF2AF087EF64
:105490002AF0000E8D6F000E8E6F800E8F6F3F0E04
:1054A000906F000E606F000E616F800E626F3F0E96
:1054B000636F8DC064F08EC065F08FC066F090C0E1
:1054C00067F065EC37F00001D8B069EF2AF06BEFB8
:1054D0002AF073EF2AF0020E8527000E8623872319
:1054E000882387EF2AF0010E8515706F000E861550
:1054F000716F000E8715726F000E8815736F7051F3
:10550000852771518623725187237351882385C063
:1055100070F086C071F087C072F088C073F0733588
:105520007333723371337033000E7025996F000E30
:1055300071219A6F000E72219B6F3F0E73219C6F39
:1055400091C070F092C071F093C072F094C073F08B
:10555000170ED8907037713772377337E82EA9EF6E
:105560002AF07051992771519A2372519B237351DC
:105570009C2399C081F09AC082F09BC083F09CC0AC
:1055800084F081C08DF082C08EF083C08FF084C023
:1055900090F08DC06CF08EC06DF08FC06EF090C03A
:1055A0006FF012001250800B1B6E12501224216EED
:1055B00011AEDDEF2AF0DFEF2AF0E0EF2AF02180D4
:1055C0002150D8B4E6EF2AF0E8EF2AF0FBEF2AF0FA
:1055D0002128D8A4EEEF2AF0F0EF2AF0F8EF2AF015
:1055E000000E0F6E000E106E000E116E000E126E89
:1055F000118E03EF2BF0000E0F6E000E106E000EDA
:10560000116E000E126E1650800B1B1A16501624C7
:10561000206E15AE0EEF2BF010EF2BF011EF2BF0EC
:1056200020802050D8B417EF2BF019EF2BF02CEF7F
:105630002BF02028D8A41FEF2BF021EF2BF029EF1F
:105640002BF0000E136E000E146E000E156E000E81
:10565000166E158E34EF2BF0000E136E000E146EC6
:10566000000E156E000E166E2050D8B43AEF2BF0D7
:105670003CEF2BF044EF2BF02150D8A442EF2BF05D
:1056800044EF2BF04EEF2BF0000E0F6E000E106E5D
:10569000000E116E000E126EE6EF2CF015500F0288
:1056A000F3CF26F0F4CF27F026501C6E1D6A1E6A39
:1056B0001F6A2750226E236A246A256A145010023A
:1056C000F3CF26F0F4CF27F026501C26000E1D2223
:1056D0001E221F2227502226000E232224222522AA
:1056E00013501102F3CF26F0F4CF27F026501C26DA
:1056F000000E1D221E221F2227502226000E2322CA
:10570000242225221EC01FF01DC01EF01CC01DF04B
:105710001C6A13501002F3CF26F0F4CF27F0265066
:105720001C2627501D22000E1E22000E1F22145080
:105730000F02F3CF26F0F4CF27F026501C26275077
:105740001D22000E1E22000E1F221EC01FF01DC0B3
:105750001EF01CC01DF01C6A13500F02F3CF26F080
:10576000F4CF27F026501C2627501D22000E1E22A3
:10577000000E1F2215501002F3CF26F0F4CF27F0B1
:105780002650222627502322000E2422000E2522F6
:1057900014501102F3CF26F0F4CF27F02650222622
:1057A00027502322000E2422000E2522155011021C
:1057B000F3CF26F0F4CF27F02650176E2750186E3F
:1057C000196A1A6A19C01AF018C019F017C018F02F
:1057D000176A1750222618502322195024221A50D3
:1057E00025221CC017F01DC018F01EC019F01FC0E4
:1057F0001AF0190E01EF2CF0D8901A321932183223
:105800001732E82EFCEF2BF01750222618502322D7
:10581000195024221A5025221EC01FF01DC01EF050
:105820001CC01DF01C6A205021C017F0186A1726F2
:10583000000E1822820E1724266EFF0E1820276EE7
:1058400037EF2CF0D89022362336243625361FAE7B
:105850002CEF2CF02EEF2CF02FEF2CF02280D89094
:105860001C361D361E361F362606D8A0270624AE47
:105870003CEF2CF03EEF2CF022EF2CF0000E206ECF
:105880001FAE45EF2CF047EF2CF06BEF2CF0FF0E26
:105890001C14176EFF0E1D14186EFF0E1E14196EC9
:1058A0007F0E1F141A6E1750181019101A10D8B442
:1058B0005CEF2CF05EEF2CF062EF2CF0010E206E0E
:1058C0006BEF2CF022A067EF2CF069EF2CF06BEF60
:1058D0002CF05EEF2CF02050D8B471EF2CF073EF69
:1058E0002CF097EF2CF0010E2226000E232224220A
:1058F000252225A07EEF2CF080EF2CF097EF2CF0E6
:1059000022C017F023C018F024C019F025C01AF0E7
:105910001A341A3219321832173217C022F018C04E
:1059200023F019C024F01AC025F0264A272A27BEE2
:10593000A2EF2CF0275008E12628D8A0A2EF2CF0E7
:10594000A4EF2CF0AEEF2CF0000E226E000E236EB2
:10595000800E246E7F0E256EDCEF2CF027BEBBEF91
:105960002CF0275006E12604D8B0B9EF2CF0BBEF9D
:105970002CF0C7EF2CF0000E226E000E236E000EEE
:10598000246E000E256E000E1B6EDCEF2CF026C080
:1059900021F0FF0E2216FF0E23167F0E2416000E96
:1059A000251621A0D6EF2CF0D8EF2CF0D9EF2CF053
:1059B000248ED8902130256E1B50251222C00FF066
:1059C00023C010F024C011F025C012F012002B509B
:1059D000800B386E2B502B243F6E2AAEF2EF2CF04A
:1059E000F4EF2CF0F5EF2CF03F803F50D8B4FBEFF4
:1059F0002CF0FDEF2CF012EF2DF03F28D8A403EF90
:105A00002DF005EF2DF00DEF2DF0000E286E000E9D
:105A1000296E000E2A6E000E2B6E2A8E000E2B6E43
:105A20001AEF2DF0000E286E000E296E000E2A6E61
:105A3000000E2B6E2F50800B381A2F502F24406EE3
:105A40002EAE25EF2DF027EF2DF028EF2DF0408022
:105A50004050D8B42EEF2DF030EF2DF045EF2DF063
:105A60004028D8A436EF2DF038EF2DF040EF2DF080
:105A7000000E2C6E000E2D6E000E2E6E000E2F6E80
:105A80002E8E000E2F6E4DEF2DF0000E2C6E000EA0
:105A90002D6E000E2E6E000E2F6E2C502D102E101F
:105AA0002F10D8A456EF2DF058EF2DF070EF2DF0F9
:105AB000000E286E000E296E000E2A6E000E2B6E50
:105AC000800E2A127F0E2B1238502B1228C028F07D
:105AD00029C029F02AC02AF02BC02BF0B3EF2EF0FA
:105AE0003F50D8A476EF2DF078EF2DF082EF2DF017
:105AF000000E286E000E296E000E2A6E000E2B6E10
:105B0000B3EF2EF040503FC030F0316A305E000EEF
:105B1000315A7F0E3024396E000E31203A6E28C083
:105B200034F029C035F02AC036F02BC037F0000E13
:105B3000286E000E296E000E2A6E000E2B6E000ECF
:105B40003B6E000E3C6E000E3D6E000E3E6E000E73
:105B5000406EE3EF2DF04050D8B4B1EF2DF0B3EF2D
:105B60002DF0CAEF2DF0D89034363536363637362C
:105B7000D890283629362A362B363EAEC2EF2DF085
:105B8000C4EF2DF0C5EF2DF02880D8903B363C3681
:105B90003D363E362C50345C2D5035582E503658FC
:105BA0002F503758D8A0D7EF2DF0D9EF2DF0E2EFD6
:105BB0002DF03E8C2C50345E2D50355A2E50365AD6
:105BC0002F50375A402A190E4064E9EF2DF0EBEFC1
:105BD0002DF0ABEF2DF03450351036103710D8B40F
:105BE000F4EF2DF0F6EF2DF00EEF2EF03B800EEFE0
:105BF0002EF0D890283629362A362B363EAE03EFC3
:105C00002EF005EF2EF006EF2EF02880D8903B36D0
:105C10003C363D363E363906D8A03A062AAE13EF5A
:105C20002EF015EF2EF0F9EF2DF0000E406E3EAE87
:105C30001CEF2EF01EEF2EF042EF2EF0FF0E3B1465
:105C4000306EFF0E3C14316EFF0E3D14326E7F0E2F
:105C50003E14336E3050311032103310D8B433EF5D
:105C60002EF035EF2EF039EF2EF0010E406E42EFA0
:105C70002EF028A03EEF2EF040EF2EF042EF2EF057
:105C800035EF2EF04050D8B448EF2EF04AEF2EF00A
:105C90006EEF2EF0010E2826000E29222A222B223A
:105CA0002BA055EF2EF057EF2EF06EEF2EF028C000
:105CB00030F029C031F02AC032F02BC033F0333439
:105CC000333232323132303230C028F031C029F034
:105CD00032C02AF033C02BF0394A3A2A3ABE79EF63
:105CE0002EF03A5008E13928D8A079EF2EF07BEF5A
:105CF0002EF086EF2EF0000E3A6E3968000E286EF8
:105D0000000E296E000E2A6E000E2B6E3ABE93EF27
:105D10002EF03A5006E13904D8B091EF2EF093EF0F
:105D20002EF0A1EF2EF0000E3A6E000E396E000E2E
:105D3000286E000E296E000E2A6E000E2B6E000ECD
:105D4000386E39C03FF03FA0A8EF2EF0AAEF2EF03A
:105D5000ADEF2EF02A8EAEEF2EF02A9ED8903F3077
:105D60002B6E64EF2DF012001EC036F01FC037F00E
:105D700020C038F021C039F022C03AF023C03BF0F7
:105D800024C03CF025C03DF03DBEC9EF2EF0CCEF65
:105D90002EF0010ECDEF2EF0000E346E356A345029
:105DA0003510D8B4D6EF2EF0D8EF2EF0E8EF2EF065
:105DB0003D1E3C1E3B1E3A1E391E381E371E366CD9
:105DC000000E3722382239223A223B223C223D2241
:105DD0000001FCBFEEEF2EF0F0EF2EF0F1EF2EF011
:105DE000FD93FCBFFEEF2EF0FC5106E1FB05D8B0A1
:105DF000FCEF2EF0FEEF2EF004EF2FF0000E316ED0
:105E0000010E306E08EF2FF0FBC030F0FCC031F017
:105E1000FEC132F0FFC133F034503510D8A413EF77
:105E20002FF015EF2FF01CEF2FF0FDA51AEF2FF03C
:105E30001CEF2FF01FEF2FF03206D8A03306000E14
:105E40003F6E4F0E3E6E000E0201616FA4EF2FF009
:105E50003E06D8A03F06120E3E24D96E020E3F2009
:105E6000DA6E36C001F037C002F038C003F039C036
:105E700004F03AC005F03BC006F03CC007F03DC05E
:105E800008F00A0E096E000E0A6E000E0B6E000E70
:105E90000C6E000E0D6E000E0E6E000E0F6E000EDC
:105EA000106EA4EC35F001C026F002C027F003C04C
:105EB00028F004C029F005C02AF006C02BF007C066
:105EC0002CF008C02DF026C013F028C014F059ECB7
:105ED0003DF01350300FDF6E3006D8A03106320689
:105EE000D8A0330636C001F037C002F038C003F046
:105EF00039C004F03AC005F03BC006F03CC007F0E2
:105F00003DC008F00A0E096E000E0A6E000E0B6E00
:105F1000000E0C6E000E0D6E000E0E6E000E0F6E5B
:105F2000000E106EE0EC34F001C036F002C037F025
:105F300003C038F004C039F005C03AF006C03BF0A9
:105F400007C03CF008C03DF03FBEAFEF2FF03F5020
:105F500008E13E04D8A0AFEF2FF0B1EF2FF0E2EF51
:105F60002FF036503710381039103A103B103C10D3
:105F70003D10D8A4BEEF2FF0C0EF2FF028EF2FF088
:105F800031BECDEF2FF0315006E13004D8B0CBEF69
:105F90002FF0CDEF2FF028EF2FF033BED8EF2FF0FA
:105FA000335008E13204D8A0D8EF2FF0DAEF2FF009
:105FB000E2EF2FF00001FDB3E0EF2FF0E2EF2FF062
:105FC00028EF2FF034503510D8A4E9EF2FF0EBEF85
:105FD0002FF0F3EF2FF00001FDA5F1EF2FF0F3EF1D
:105FE0002FF011EF30F03E06D8A03F0634503510A8
:105FF000D8A4FDEF2FF0FFEF2FF005EF30F0000EEB
:106000002F6E2B0E2E6E09EF30F0000E2F6E2D0E20
:106010002E6E120E3E24D96E020E3F20DA6E2EC076
:10602000DFFF1CC011F01DC012F0120E3E24136ED3
:10603000020E3F20146E32C015F033C016F0A5ECEE
:1060400039F011C01CF012C01DF0120028C036F04B
:1060500029C037F02AC038F02BC039F02DBE3AEFF6
:1060600030F02D5009E1800E2C5CD8A03AEF30F0D2
:106070003CEF30F09AEF30F036C00FF037C010F040
:1060800038C011F039C012F0000E136E000E146EFD
:10609000000E156E7F0E166ED2EC2AF00FC036F091
:1060A00010C037F011C038F012C039F0810E2C2624
:1060B000FF0E2D222DBE66EF30F02D5009E1800E2F
:1060C0002C5CD8A066EF30F068EF30F004EF31F0D0
:1060D00036C00FF037C010F038C011F039C012F0E0
:1060E000000E136E000E146E000E156E7F0E166EEF
:1060F000D2EC2AF00FC036F010C037F011C038F0E3
:1061000012C039F0810E2C26FF0E2D222DBE92EFEB
:1061100030F02D5009E1800E2C5CD8A092EF30F0C9
:1061200094EF30F004EF31F0000E2D6E7F0E2C6EE8
:1061300004EF31F02DAEA6EF30F0820E2C5CFF0E96
:106140002D58D8B0A6EF30F0A8EF30F004EF31F0C2
:1061500036C00FF037C010F038C011F039C012F05F
:10616000000E136E000E146E800E156E0C0E166E61
:10617000D2EC2AF00FC036F010C037F011C038F062
:1061800012C039F0660E2C26000E2D222DAED2EF55
:1061900030F0820E2C5CFF0E2D58D8B0D2EF30F0CC
:1061A000D4EF30F004EF31F036C00FF037C010F00C
:1061B00038C011F039C012F0000E136E000E146ECC
:1061C000800E156E0C0E166ED2EC2AF00FC036F053
:1061D00010C037F011C038F012C039F0660E2C260E
:1061E000000E2D222DAEFEEF30F0820E2C5CFF0E45
:1061F0002D58D8B0FEEF30F000EF31F004EF31F061
:10620000FF0E2D6E820E2C6E7F0E2C242E6E000E35
:106210002D202F6E306A316A170ED8902E362F3609
:1062200030363136E82E0DEF31F02EC032F02FC06F
:1062300033F030C034F031C035F032C00FF033C02D
:1062400010F034C011F035C012F036C013F037C072
:1062500014F038C015F039C016F0D2EC2AF00FC097
:1062600028F010C029F011C02AF012C02BF028C06D
:1062700028F029C029F02AC02AF02BC02BF01200E8
:1062800004C251F005C252F006C253F007C254F0E6
:1062900041C051F042C052F043C053F044C054F0EA
:1062A000810E456EFF0E466E51C047F052C048F059
:1062B00053C049F054C04AF0180E64EF31F0D89042
:1062C0004A32493248324732E82E5FEF31F04750C8
